:040000006F00D0635A
:100004000000000000000000900000201E090020F5
:10001400A9BDF9F3900000200000000000000000DA
:10002400900000209000002000000000000000006C
:10003400900000200000000090000020000000005C
:1000440090000020900000209000002090000020EC
:1000540090000020900000209200002090000020DA
:10006400B2040020900000209000002090000020A6
:1000740090000020900000209000002090000020BC
:1000840090000020900000209000002090000020AC
:1000940001A0011122CE26CC4ACA4EC852C6B78747
:1000A400004003C7670003C477001377F70F937604
:1000B40027006389063C1374F40F13770403930633
:1000C40000036305D7021377F40393060002630E5B
:1000D400D70C63E2E6088546630FD70A91466308A6
:1000E400D714B787004009472383E700620461847B
:1000F400635F041E9387810303D7670003C98103E9
:1001040013760906239AE18003C71700A38BE180C5
:10011400930620FC378700402301D7029386018190
:100124003E876303061213071002631DE92683C684
:10013400718113072002639EE60083C727001167BD
:100144000507858B239CE116238DF1168D472386A5
:10015400F1808146ADAC930610026305D702930685
:100164004002E310D7F803C7270313470704238982
:10017400E70203C727031377C70F136727002389F1
:10018400E70285B703C767021377C70F1367270012
:100194002383E702B9B71377040421D703C5870083
:1001A400971000E0E78020192DBF9386018103C7D3
:1001B400718195453686630EB70499466316D70652
:1001C40003D9418193070004CA8463F4270193048B
:1001D400000483290600C204C18013FAF40F2686A2
:1001E40033099940CE8513858103CE94972000E08E
:1001F400E780C0D8239A218123A89180B787004043
:100204002380470303C72702134707042381E70218
:10021400C9BD03C7370083C6460013770708558F47
:10022400A381E7000947DDB723800702E5BF137701
:100234000404E30807EA03C72703134707082389CD
:10024400E70283C7870071BD83C77181294663654F
:10025400F608173600E0130626018A07B2979C4376
:10026400B297828783D7A10313D78700094663080F
:10027400C7088D45630FB70885476316F70A973794
:1002840000E09387A70723A8F1800144C947C20768
:10029400C18303D7418163F4E700239AF18003D635
:1002A40046009307000483A9060063F4C7001306FD
:1002B400000493140601C1802686CE85138581032C
:1002C400972000E0E78080CB3386990023A8C18083
:1002D4009307F00F6318F40CB78700401307F0FC82
:1002E4002381E702B787004009472383E70072446C
:1002F400E2445249C249324A0561730020309737BB
:1003040000E09387E7FA23A8F18001449307B0043F
:10031400BDBF93F7F70F85456384B70289CB638A22
:10032400C7026381E7041304F00F81478DB7973741
:1003340000E09387A71E23A8F1800144914781BF61
:10034400973700E09387C7FC23A8F1800144B9479D
:100354003DBF973700E09387A7FC23A8F1800144B1
:10036400B14735B797170000938747AD23A8F180AD
:1003740001449717000083C767AC11BF8347270068
:10038400239AF18005A083C76600238CF10203D76A
:100394004181854763F8E7008547DDB78357270028
:1003A400238BF180620913598941E35409DA83D715
:1003B4004181930600043E8763F4F60013070004AA
:1003C40042074183998F9376F70F239AF180B78779
:1003D40000402380D702130700FC19B783470700A6
:1003E4008946FD8B6398D706834747001147638A84
:1003F400E704636CF7000547E390E7EE37870040B6
:100404008347670293F7370715A813071008638F0C
:10041400E70013074008E391E7EC37870040834780
:10042400270393F7C70B93E7270015A037870040EE
:100434008347670293F7C70B93E727002303F70269
:1004440095B7378700408347270393F73707230976
:10045400F70289BFE39207E83787004083476702C2
:1004640093F7C70B93E727002303F7024DBF238CB1
:10047400010231BF239C010203D741818947E3F381
:10048400E7F2FDBD9376170089CEA38107000947E3
:100494002381E702C9462383D7022389E70205475C
:1004A400A9B593764700E38206E403C757001147D2
:1004B4002DBDB727004083C76740858BBDC341115D
:1004C40022C6138481345C40A1C71C4003468400C7
:1004D40083C5170003C50700150606062296971064
:1004E40000E0E78080728347840085072388F13425
:1004F40018409307270023A4F1340347270009C7B2
:100504001387012C6376F7009387A12B23A4F1347E
:10051400B727004005472383E74032444101730075
:1005240020307300203073270080218B9387018251
:1005340009CB7327008023A0E18298435D9B73104D
:1005440007800F1000003717004093067005230042
:10055400D704930680FA2300D7040F1000008346C3
:10056400B70493F6F60DA305D704230007047326F6
:1005740000809443A18AD18E7390068023A00182C7
:100584000F10000093760502638406180347A70042
:10059400118B25E773270080218B09CB73270080FB
:1005A40023A0E18298435D9B731007800F10000025
:1005B40037170040930670052300D704930680FA8A
:1005C4002300D7040F1000008346A70093E64600DB
:1005D4002305D70023000704F32600809843218BCA
:1005E400558F7310078023A001820F10000013079A
:1005F400004B010001007D176DFF73270080218BE4
:1006040009CB7327008023A0E18298435D9B73107C
:1006140007800F1000003717004093067005230071
:10062400D704930680FA2300D7040F1000007D89B5
:100634002314A700010001000100010023000704A6
:10064400F32600809843218B558F7310078023A0D5
:1006540001820F10000073270080218B09CB7327C0
:10066400008023A0E18298435D9B731007800F10E4
:10067400000037170040930670052300D704930643
:1006840080FA2300D7040F1000000F100000B726D3
:10069400004013061005A383C68023000704F32635
:1006A40000809843218B558F7310078023A001820B
:1006B4000F10000073270080218B09CB7327008063
:1006C40023A0E18298435D9B731007800F10000004
:1006D40037170040930670052300D704930680FA69
:1006E4002300D7040F1000008346B70493E60608DE
:1006F400A305D70423000704732700809C43A18B20
:10070400D98F7390078023A001820F10000082808C
:1007140093760504638B06140347A700418B25E7F2
:1007240073270080218B09CB7327008023A0E182EB
:1007340098435D9B731007800F100000371700402B
:10074400930670052300D704930680FA2300D70488
:100754000F1000008346A70093E606012305D70087
:1007640023000704F32600809843218B558F7310D0
:10077400078023A001820F1000001307007D0100F1
:1007840001007D176DFF73270080218B09CB732730
:10079400008023A0E18298435D9B731007800F10B3
:1007A400000037170040930670052300D704930612
:1007B40080FA2300D7040F1000009376F50193E626
:1007C40006042314D70001000100010001002300E6
:1007D4000704F32600809843218B558F73100780FC
:1007E40023A001820F100000130760046310E504C6
:1007F40073270080218B09CB7327008023A0E1821B
:1008040098435D9B731007800F100000371700405A
:10081400930670052300D704930680FA2300D704B7
:100824000F100000B72600400946B5B573270080B5
:10083400218B09CB7327008023A0E18298435D9B21
:10084400731007800F1000003717004093067005DF
:100854002300D704930680FA2300D7040F10000066
:10086400B7260040130620053DB573270080218B71
:1008740009CB7327008023A0E18298435D9B73100A
:1008840007800F10000037170040930670052300FF
:10089400D704930680FA2300D7040F100000835670
:1008A400870093E6060C2314D700C5BB411181468B
:1008B40001468145114506C6192CF3270080A18BFA
:1008C4009386018289CBF327008023A0F1829C4286
:1008D400DD9B739007800F100000B71700401307CB
:1008E40070052380E704130780FA2380E7040F10C0
:1008F400000003C76704136717002383E7042380FA
:100904000704732700809C42A18BD98F73900780C2
:1009140023A001820F100000B24041018280814671
:100924000146814511456522F3270080A18B138779
:10093400018289CBF327008023A0F1821C43DD9B35
:10094400739007800F100000B717004093067005DE
:100954002380D704930680FA2380D7040F10000065
:10096400FD562396D70223800704F32600801C43F8
:10097400A18BD58F7390078023A001820F100000F4
:10098400F3270080A18B89CBF327008023A0F18279
:100994001C43DD9B739007800F100000B7170040C5
:1009A400930670052380D704930680FA2380D70426
:1009B4000F10000083C6670493E616002383D70450
:1009C40023800704F32600801C43A18BD58F7390EA
:1009D400078023A001820F10000001A0BD4733054A
:1009E400F50201007D1575FD8280411122C426C2E5
:1009F40006C6AA84014463179400B2402244924478
:100A04004101828005041305803E4204C13F4180B8
:100A1400DDB72303048015472303E4800100230288
:100A2400A480828083076480E3CE07FE23030480CE
:100A3400828083076480E3CE07FE0345448082807E
:100A440083076480E3CE07FE2302A48082804111E1
:100A540026C44AC24EC006C61377F50BAD47AA8911
:100A64002E8995446306F70019456537653F8D4423
:100A74004E854537FD59FD1463983401B240A244B4
:100A84001249824941018280135509011375F50FFA
:100A9400453F2209CDB7011126CC06CEB704080084
:100AA40051371545BD37713769372AC6A53F3245D9
:100AB4009377150089EB136515001375F50FF24054
:100AC400E24405618280FD14E9FC0145CDBF397122
:100AD40026DC4ADA4ED852D656D45AD25ED006DE36
:100AE40062CE66CCB7E700E07D5783AA070022C632
:100AF40003AA470023A0E71823A2E718B71700406A
:100B0400130770052380E704130780FA2380E704A2
:100B140083C74704930B75FFB684E20793FBFB0F6F
:100B24008546AA892E8B328937240040E1870157F4
:100B340063FA76016308D50089461307000263133C
:100B4400D5000157D98F93F7F70FB71C00402382C4
:100B5400FC0411472303E4801305F00F5D3D094CA9
:100B6400D135636D7C11B7050700DA953787070027
:100B7400795563F2E504B3879500636EF702370B8A
:100B84000800A94733EB65016399F90689E48144B8
:100B9400513D26850DA0DA850945553D05090345D6
:100BA400F9FFFD14050B693D81C49377FB0FFDF735
:100BB400DD3569FD7D55B7170040130770052380A7
:100BC400E704130780FA2380E70403C74704418B33
:100BD4002382E704F250B7E700E023A0571123A2D1
:100BE4004711E25432445259C259325AA25A125B42
:100BF400825B724CE24C21618280A5476395F906C1
:100C040085691309F00FB3069900B3742B01B694E8
:100C14001349F9FFB3749900856B33796901416B0A
:100C24009387F9FFB3F7270199E363FC340193D960
:100C34004900C147E3E637FF99BF0569C1697D19DA
:100C4400D9B71305800D6388690113050002638415
:100C5400790113051008CA85DD3B353D21DD4E9928
:100C6400B3843441D9B7DA852D45D533CA94E3002A
:100C740099F205097D3BA30FA9FED5BF9387F9FF20
:100C840093F7F70F6361FC0C83C71C041307300848
:100C9400631FF70437070800636BEB04B3079B007B
:100CA400B706100063F5D704334BEB008947639311
:100CB400F9068980D549E38C04ECDA850945413B82
:100CC40011090327C9FF91472320E48003076480A7
:100CD400E34E07FE23033481FD17EDFBFD14110BD6
:100CE40081C49377FB0FE9FF7D3371F5E1B5B71745
:100CF400004003C75704B70708001377070219E336
:100D0400B78707007955E378FBEA33079B00E3FFD5
:100D1400E7F855B58547E382F9F2DA852D45053BB9
:100D24009389F4FFE38504E6293393F7390091EBC3
:100D3400832604800327090093074900E39AE6E425
:100D44003E89CE84F1BFB5476396F9001305900B35
:100D5400C93135BDB1471305B00AE38BF9FE994794
:100D64006391F904B7050800B365BB002D45C5318F
:100D740081448D4BA149753963967401832704809E
:100D84002320F9008504E39834FF83270480131794
:100D94002B01635507002312F900D5BB2322F90068
:100DA400FDB39D476399F90281451305B0044531AC
:100DB400BD442320090023220900FD599D3993F7DE
:100DC4007400CA9703C70700FD14398D2380A70058
:100DD400E39634FF6DBBA1476392F9046D398144F6
:100DE400630D0B008D479304C0036308FB00930459
:100DF400000563048B01930440041375C507E308DD
:100E040095D81945393139390545213126850D39AA
:100E140009453D314931E31C05D669BB91476399C6
:100E2400F90013056006F536F53E130590090DB774
:080E3400E38F09D4F154A9BBBE
:100E3C00971100209381C186177100201301C11BEB
:100E4C001305400097F5FF1F9385051B170600201F
:100E5C00130606FE63FAC5008322050023A0550085
:100E6C0011059105E3EAC5FE172500001305C56AB7
:100E7C00970500209385C5FB1386818063FAC50016
:100E8C008322050023A0550011059105E3EAC5FE58
:100E9C0013858180938581556377B50023200500E8
:100EAC001105E36DB5FEFD42739002BC8D4273904B
:100EBC004280930280087390023097F2FF1F938256
:100ECC00A21393E23200739052303717004093070D
:100EDC0070052300F704930780FA2300F7040F1022
:100EEC0000003C47B70600FAE116F58FB70600067E
:100EFC009506D58F3CC797020000938242197390D8
:100F0C001234730020303D432A876373C3029377F6
:100F1C00F700BDEFADE5937606FF3D8ABA960CC39C
:100F2C004CC30CC74CC74107E36BD7FE11E2828060
:100F3C00B306C3408A069702000096966780A60007
:100F4C002307B700A306B7002306B700A305B70015
:100F5C002305B700A304B7002304B700A303B7000D
:100F6C002303B700A302B7002302B700A301B70005
:100F7C002301B700A300B7002300B700828093F5CC
:100F8C00F50F93968500D58D93960501D58D61B798
:100F9C00939627009702000096968682E78086FA41
:100FAC009680C1171D8F3E96E374C3F8A5B7011147
:100FBC0022CC06CE378400408347640205458D8BD6
:100FCC009DC31385C102912A2AC621CD9307000423
:100FDC0063D3A7003EC67000938581131385C102AD
:100FEC00F52A11C50145F240624405618280B24781
:100FFC00B7E600E03706400023A4F18037870040B5
:10100C0093F7F70F2302F70223A0C6180F10000066
:10101C008347670293F7C70F2303F70223A0C61079
:10102C00D1B793878180984393070004E31CF7FAA8
:10103C0023A401802302040237E700E0B706400036
:10104C002320D7180F1000008347640293F7C70FB3
:10105C002303F4022320D71079B7371700408327D6
:10106C00870A411106C693E707202324F70A854512
:10107C0013050010EF00B0488D4513050020EF005C
:10108C001048B24041016F00F0687971130580047B
:10109C0006D622D426D24AD04ECE52CC97F0FF1F81
:1010AC00E780E0475D3F172500001305E51DEF10B5
:1010BC00200905661306068097050020938505E137
:1010CC001385C102A520B7F700E0154798C3EF00C0
:1010DC00A0691384C180A522054993898117938443
:1010EC00811B138AC1028347040093F7F70F95C342
:1010FC0083470400637DF90003460400CE852685F2
:10110C00992C2AC609C57000A6855285992023867C
:10111C000180EF00207E613DF9B783572500035510
:10112C0005003385A740420541818280AA8705C20C
:10113C001307F6FFB376C700054599EA23A007000D
:10114C00CCC32394C7002395E70001458280054555
:10115C00828059C1AA87114531C283D6070003D7B3
:10116C008700369783D62700158F835606004207D3
:10117C0041836370D70241113686BA85172500006A
:10118C001305051106C6EF00D069B24005454101B3
:10119C0082800D4501C70145014795E58280338565
:1011AC00E5008348050003D8A70003D527000507F1
:1011BC0033780501C84342952300150103D5270058
:1011CC0005052391A700131507014181E369D5FC9F
:1011DC002310D6000145828011458280AA871145D3
:1011EC00B1CF29CE83D6070003D72700158F83569E
:1011FC000600420741836373D700BA86C206C182D8
:10120C0009450DCF01476366D7002310D600014571
:10121C00828003D5070003D8A70033780501C843A3
:10122C004295034805003385E500050723000501B9
:10123C0003D5070005052390A700F1B78280411163
:10124C00B787004006C6B7F5070023800700814624
:10125C0013868103E105194597000020E780A086DD
:10126C009307E030170700202314F7BC01469707BB
:10127C0000209387E7BB9386810317250000130595
:10128C00250A0D483387C60003470700A3810700D2
:10129C00A3820700935547003D8BAA952A9783C5D7
:1012AC0005000347070005062381B7002382E700EA
:1012BC009107E31906FDB78700401307C0FCC2066F
:1012CC002386E700C1822398D7001387810F239AC6
:1012DC00E70029472381E70249472383E7020947AF
:1012EC002389E702A3810700130790022380E700FC
:1012FC00B716004003D7A6011367070C239DE60021
:10130C007D572383E7001D472381E700130710F85F
:10131C00A380E700B240B7E700E03707400023A006
:10132C00E7104101828083C7C1808DE705C5930713
:10133C00000463FEA7002386F1809387C18003C657
:10134C0007009385810F138581176F003042238628
:10135C00A180E5B78280011122CC06CE26CA4AC8EC
:10136C0083C715000D472A84A300F5006383E71893
:10137C00AE846360F70205476382E708637AF7047B
:10138C0083C70500DDEF930720F8A300F40009459F
:10139C00A1A84147638EE70C6369F7002D4701450F
:1013AC006384E70493E707F8CDB745476380E710FC
:1013BC0013070004E398E7FE83C7050001458DC7BA
:1013CC0083C72500638907162AC6F129324529A847
:1013DC00D9472301F500C147A301F5009947230222
:1013EC00F500A302050019459307E5FF2300F4005F
:1013FC00F2406244D24442490561828083C70500B1
:10140C0095C723A601341307600213F6F70F637414
:10141C00F70013066002938524001385412AEF0020
:10142C00F034AD2601E583471400ADBF130660020E
:10143C009385412A13052400EF00503313058002D5
:10144C0065B723010500A301050023020500A302D3
:10145C00050083C72500858B99E30D4571B7712471
:10146C006DFD8347240093E717002301F400F5B7C3
:10147C001306450083C5350003C5240093878134CA
:10148C0003A9470023A60134EF00207739E983C76D
:10149C00340003C72400A207D98F2301F400A183D1
:1014AC00A301F400194523A621353DBF9387813450
:1014BC0003A9470023A6013483C7550003C6450082
:1014CC0003C5240083C53500A2075D8EEF0060685C
:1014DC0009E911469385240013052400EF00102917
:1014EC00D1B783471400094593E707F8A300F4002C
:1014FC005DBF9387C1819C4313D787002301F500FF
:10150C00A301E50013D70701E183A302F50093873C
:10151C0081819C432302E50013D787002303F50048
:10152C00A303E50013D70701E1832304E500A3041B
:10153C00F500294555BD371700408327870CB706A2
:10154C008000F58F2324F70C91E3B12ED1200145B7
:10155C0061BD2E96172800001308C8DD6393C500E3
:10156C00828003C705009376F5008606C2969357D2
:10157C00450003D506009376F7008606C296A98F20
:10158C0003D5060011830607A98F93F6F70086068C
:10159C00429713D54700C2968357070083D606009F
:1015AC0085053D8D358D5DBF938781341387A12BC8
:1015BC002384070098C3A3840700828023A60134E8
:1015CC00B7270040238007408280B7270040094797
:1015DC002380E74011472380E74082809307C003B4
:1015EC003305F502B7270040094723A6A7402380FF
:1015FC00E7402380074003C7274013671700238168
:10160C00E740B7E700E03707000123A0E71082802E
:10161C0041112382012A06C6553783C7212CB9CB29
:10162C00392903D6412C83C5312C03C5212C152314
:10163C0009CD83D6412C03C6312C83C5212C17250B
:10164C0000001305A5D2EF00D01D03C5612C1DC1F0
:10165C0003D6812C83C5712CED2909CD83D6812C21
:10166C0003C6712C83C5612C17250000130505D00A
:10167C00EF00301B492E371700408327C70CB706E5
:10168C008000B240D58F2326F70C8145373580007A
:10169C0041016F0020714111930680021386412A8B
:1016AC0081452D4506C697F0FF1FE780C0410DC54B
:1016BC0017250000130505CAEF00902813066002D9
:1016CC0097250000938505D61385412AEF00100A53
:1016DC000545B24041018280416513068002938525
:1016EC00412A7D15BD3569F5EDB741653971130694
:1016FC0060029385412A7D1506DEA13D2395A12C20
:10170C0093068002300081452D4597F0FF1FE7803E
:10171C00803B09ED130680029385412A2800EF00D7
:10172C00900209E50145F250216182809306001078
:10173C0001468145254597F0FF1FE780C03809C950
:10174C0017250000130585CCEF00901F0545E1BF60
:10175C00930680021386412A8145294597F0FF1F85
:10176C00E780603671FD7DBF411106C62D373717F6
:10177C0000408327C70CB7068000B240D58F2326C4
:10178C00F70C814537358000410129AD411123A665
:10179C00013406C622C426C24AC003C7412A930795
:1017AC00C00363F4E7002382F12A83D7812A1394C0
:1017BC00170145809306E4FC1307E047637AD700D2
:1017CC006177F98F93E7074B2394F12A1304004BAD
:1017DC00BD24C56793870717B3D7870283D4612AC3
:1017EC0083C5512AB394B40063FFF4002382012A09
:1017FC00F1332286A68517250000130525BAEF00C4
:10180C0050020145BDA04D3383C7412AD9CB268553
:10181C00F13323AE018023AC01801384412A9384DD
:10182C00412B17290000130969B48347640095CF35
:10183C001305800C97F0FF1FE780C0190356840036
:10184C008345740003456400292609CD2382012AAF
:10185C00B5338356840003467400834564004A857F
:10186C00EF00207C1104E31294FC83C7412A81EB26
:10187C000545B2402244924402494101828093873B
:10188C0081349C4383C7070091C7854723A6F13455
:10189C002D3BF9BF17250000130505B4EF00500AC6
:1018AC008DB7293B9DBF411185453735800006C654
:1018BC00D5291305000897F0FF1FE780A0113717F3
:1018CC0000408327870CB70680008D45D58F2324D5
:1018DC00F70C37058000F921914537058000D92197
:1018EC00094597F0FF1FE780C00FB2402382012A01
:1018FC00410169BD83C7113503C7412A83C6013530
:10190C0063020710011106CE1386813463FEF608BC
:10191C00938606109D8E63EAE606931617003285B1
:10192C002386D12C9D46A386D12C9305001093863B
:10193C00E12C139617002A960356A60089068507F4
:10194C00238FC6FE2182A38FC6FE7D176392B70438
:10195C003AC6B24713868134A388F1348607B6970A
:10196C000906639AF60283C7C12C89077000938518
:10197C00C12C1385C1023EC6EFF0AFFD25E993875C
:10198C00C1819C43850723AEF180F24005618280C2
:10199C004DF302C67DBF035786008906238FE6FEF2
:1019AC002183A38FE6FE6DBFE3F1D7FE9D8E3A85B2
:1019BC00E3EDE6FC931617002386D12C9D46A386F7
:1019CC00D12C93961700B2961386C12C8906090662
:1019DC0009E5BA97A388F13479B783D586007D15CC
:1019EC002300B600A181A300B600CDB717250000D7
:1019FC00130545A0B127938781819C43850723ACB0
:101A0C00F18061B78280B757004003D70780058B00
:101A1C0015C703D70780A166558F2390E78003D79E
:101A2C000780460745832390E78003D7078042074A
:101A3C004183799B420741832390E7808280411147
:101A4C0022C403C4912A83C7812A220485450D65CB
:101A5C005D8C06C6812EB757004003D70780A16660
:101A6C0042074183799B420741832390E78003D748
:101A7C000780558F2390E78003D70780FD16758F5D
:101A8C002390E78003D74780E18E420442074183CD
:101A9C00137707FC1367C7032392E7804D47239006
:101AAC00E7821D6713070753B356D7024184239E61
:101ABC00D78003D70780136717002390E78063480C
:101ACC00040003D70780136707082390E780B757F4
:101ADC00004003D70780B24022441367A7402390ED
:101AEC00E780116723940780130707082394E78086
:101AFC002392078041018280B7F700E09847DC47CA
:101B0C000111BA85056706CE37580040B7F800E0DA
:101B1C001307077783574881C207C183B3F6A70021
:101B2C0099CE0357888101457977130707F0F98F10
:101B3C0081C73EC629373245F2400561828003A633
:101B4C00880083A6C8000D8EE376C7FCCD3D7D557D
:101B5C00E5B7011122CC375400408357048006CEE0
:101B6C0026CA4AC84EC6858BD9C783570480AA8417
:101B7C00B289C207C18393F7F7DFC207C183231071
:101B8C00F4809167C98F2314F48083570480054532
:101B9C002E8993E707102310F480B93F15EDC2048A
:101BAC00C180231894800945813F1DE542091359D2
:101BBC00090123182481130540083D3F11ED93D7EB
:101BCC0089002318F480130540083D3711E52318CC
:101BDC003481130540080D37375700408357078071
:101BEC0093E707202310F780F2406244D244424925
:101BFC00B249056182807D55C5BF011122CC375495
:101C0C0000408357048006CE26CA4AC84EC652C42A
:101C1C00858B6384070E83570480131A0501135AAE
:101C2C000A41C207C18393F7F7DFC207C1832310B0
:101C3C00F4809167B367FA002314F480835704800F
:101C4C00AA84054593E707102310F4803289AE89E6
:101C5C00653541E593970401C1832318F480094548
:101C6C00613D25EDC20993D909012318348113056F
:101C7C00400859353DE191678507336AFA00231412
:101C8C00448183570480054593E707502310F48063
:101C9C00A53521E593E4140093F4F40F23189480F4
:101CAC000945993D1DE913050004B9351DE5835718
:101CBC00048013050004C207C18393F7F7BFC20762
:101CCC00C1832310F48083570481A300F9002D35C0
:101CDC0009E5835704812300F900375700408357E7
:101CEC00078093E707202310F780F2406244D24428
:101CFC004249B249224A056182807D55FDB7914720
:101D0C0063EEB70217170000130747748A05BA95DC
:101D1C009C41BA978287B717004003A7470B13451E
:101D2C00F5FF698F23AAE70A03A7070B698F23A87E
:101D3C00E70A03A7070A798D23A0A70A8280B717A1
:101D4C00004083A6470B1347F5FFF98E23AAD70A49
:101D5C0083A6070B558D23A8A70A83A6070A758FA0
:101D6C0023A0E70A8280B717004003A7470B498FCF
:101D7C0023AAE70A03A7070B1345F5FF45BFB717BF
:101D8C00004083A6470B1347F5FF758F23AAE70A7C
:101D9C0003A7070A598D4DB7B717004003A7470B88
:101DAC00498FEDB7914763EEB70217170000130781
:101DBC00276B8A05BA959C41BA978287B717004062
:101DCC0003A7470D1345F5FF698F23AAE70C03A75B
:101DDC00070D698F23A8E70C03A7070C798D23A0A7
:101DEC00A70C8280B717004083A6470D1347F5FF59
:101DFC00F98E23AAD70C83A6070D558D23A8A70C03
:101E0C0083A6070C758F23A0E70C8280B7170040C0
:101E1C0003A7470D498F23AAE70C03A7070D13450A
:101E2C00F5FF45BFB717004083A6470D1347F5FFD5
:101E3C00758F23AAE70C03A7070C598D4DB7B7175D
:101E4C00004003A7470D498FEDB7B717004003D5E6
:101E5C008700420541819377050491EB9377F50157
:101E6C003755E801130505803345F50282809377D9
:101E7C00050C130700046397E7009377F5013745CA
:101E8C009C1CCDB72165130505D08280814737375F
:101E9C000040A14663C4C700328582800345B74029
:101EAC00E38EA6FE3385F500034505008507230464
:101EBC00A740CDB797F7FF1F938787FE9C431387E7
:101ECC0081553E95636EE500176700201307C7F236
:101EDC006368A70017F7FF1F2324A7FC3E858280A9
:101EEC00FD57EDBF411122C406C62A84B93F2947CC
:101EFC00B307E502B2408D83B3D78702224495071E
:101F0C00B3D7E70237370040C207C1832316F74027
:101F1C0041018280716541111305052006C6D93730
:101F2C00B7370040130770F82381E7400D47A381B2
:101F3C00E74013070004A380E74005472387E740E9
:101F4C00B2404101828001476314E6000145828062
:101F5C00B307E5000507B386E50083C7070083C612
:101F6C00F6FFE383D7FE3385D7408280B3C7A50045
:101F7C008D8B3307C50081E78D4763EEC700AA87B9
:101F8C006370E50A83C6050085078505A38FD7FE18
:101F9C00E3EAE7FE828093763500AA8791CA83C66E
:101FAC00050085078505A38FD7FE93F63700FDB78F
:101FBC009376C7FF138606FE63F0C70683A305005E
:101FCC0083A2450083AF850003AFC50083AE050136
:101FDC0003AE450103A3850183A8C5019385450282
:101FEC0023A0770003A8C5FF23A2570023A4F70161
:101FFC0023A6E70123A8D70123AAC70123AC6700B6
:10200C0023AE17019387470223AE07FF75B79041A4
:10201C009107910523AEC7FEE3EBD7FEE3E4E7F6A9
:10202C00828039713EDA2ED232D436D63AD842DC9E
:10203C0046DE97F7FF1F9387E7E622CC804326CA3C
:10204C0006CEAA8409C41C4C99E3228535230C4482
:10205C0054102686228536C6EF007017F240624473
:10206C00D24421618280011126CA4AC806CE22CCF4
:10207C004EC652C4AA842E8901C51C4D91E3ED298C
:10208C009C4C804499E32685C529971700009387BB
:10209C006740631CF402C0408357C400A18BB1C7D6
:1020AC001C48A1C7FD59294A1C4483450900FD174A
:1020BC00B1E91CC463DE07062286A94526854128A2
:1020CC00FD576308F502294535A097170000938743
:1020DC00673E6314F4008044C1B7971700009387E0
:1020EC006739E31BF4FAC04445BFA2852685052257
:1020FC0055D97D55F2406244D2444249B249224AF4
:10210C00056182801CC4050963D70700184C63CB9A
:10211C00E700638945011C401387170018C0238012
:10212C00B70059B7228626851D20E31F35F7D1B796
:10213C001C401387170018C029472380E70061B79C
:10214C0097F7FF1F938707D6AA85884329BF0111EC
:10215C0022CC26CA4AC806CE4EC6AA842E89328400
:10216C0001C51C4D91E3092997170000938787320D
:10217C006319F406C0401C4C1CC48357C400A18BCB
:10218C00C9C31C48BDCF1C4808409379F90F13797B
:10219C00F90F1D8D5C486346F500A2852685752CCC
:1021AC002DE51C440505FD171CC41C4013871700A6
:1021BC0018C0238037015C486389A7008357C4008B
:1021CC00858B81CBA9476316F900A28526857124DE
:1021DC000DEDF24062444A85D2444249B249056150
:1021EC008280971700009387E72C6314F4008044D7
:1021FC0059B7971700009387E727E31EF4F6C044FE
:10220C009DBFA285268521203DDD7D59D9B7411181
:10221C0097F7FF1F938707C926C2844322C44AC07D
:10222C0006C62A892E8489C49C4C99E32685A92646
:10223C009717000093870726631CF402C04003170E
:10224C00C40093170701C18393F68700B5EE93F68C
:10225C0007019DEEA5472320F900136707042316F9
:10226C00E4007D55B24022449244024941018280EF
:10227C0097170000938707246314F4008044C1B7B8
:10228C00971700009387071FE31BF4FAC04445BF60
:10229C00918B8DC74C5889C9930744046384F5000E
:1022AC004A859123232A04028357C4002322040065
:1022BC0093F7B7FD2316F4001C481CC08357C400C9
:1022CC0093E787002316F4001C4881EF8357C40062
:1022DC001307002093F707286385E700A2854A853A
:1022EC00A5218357C40013F7170005C75C482324A6
:1022FC000400B307F0401CCC1C480145A5F783171C
:10230C00C40013F7070839DF93E707042316F4001A
:10231C0089BF898B014791E3584818C4F1BF83D713
:10232C00C500011122CC26CA06CE4AC84EC613F7E8
:10233C008700AA842E8471EFD841634DE000B84128
:10234C00634AE0000145F2406244D2444249B2493A
:10235C000561828058547DD703A9040093963701F8
:10236C0023A0040063DD060670488357C400918BDC
:10237C0099C75C401D8E5C5899C33C401D8E5C54C3
:10238C000C50814626858297FD570357C400631D68
:10239C00F5009440F54763E8D706B707402085075A
:1023AC00B3D7D700858BA5C31C48232204001CC0BF
:1023BC009317370163D80700FD576314F5009C4051
:1023CC0091E368C84C5823A02401ADDD9307440465
:1023DC006384F50026850129232A0402A5B70C5035
:1023EC000146854626850297FD572A86E31FF5F69A
:1023FC009C40A5DF75476385E70059476394E70464
:10240C0023A0240181B7136707042316E4007D552C
:10241C001DBF83A90501E38709F203A905008D8B74
:10242C0023A0350133093941014791E3D84918C438
:10243C00E35A20F11C540C50CA864E86268582978E
:10244C006349A0008357C40093E707042316F400E4
:10245C007DBFAA993309A940E1BF9C49B9CF0111AD
:10246C0022CC06CE2A8411C51C4D81E72EC629220A
:10247C00B245971700009387E701639BF5004C402A
:10248C008397C50095C722856244F240056141BD22
:10249C0097170000938707026394F5000C44CDB79F
:1024AC0097170000938707FDE39CF5FC4C44C9BFCC
:1024BC00F2406244014505618280014582804111F0
:1024CC0022C406C62A842316B5002317C500232070
:1024DC0005002322050023240500232205062328BA
:1024EC000500232A0500232C0500214681451305F0
:1024FC00C505EFE05FA1971700009387E7B45CD0A8
:10250C0097170000938747B71CD497170000938741
:10251C0087BB5CD497170000938747BE00D01CD8AC
:10252C00B24022444101828097050000938525F337
:10253C0089AA411126C2130680069384F5FFB38441
:10254C00C4024AC02E8922C406C69385440781263C
:10255C002A8401CD2320050023222501310508C43E
:10256C00138684068145EFE01F9A2285B2402244EF
:10257C0092440249410182801C4DBDE3411106C6C3
:10258C0022C497070000938767FA1CD597170000A1
:10259C00938747F89C43232405042326050423280A
:1025AC0005046314F50085471CCD2A841D2848C0FA
:1025BC002285052808C422852D2048C448400146A0
:1025CC009145F53D08440546A545D53D4844094689
:1025DC00C945F53585471CCCB24022444101828067
:1025EC0082804111971700009387C7F226C284435B
:1025FC004AC006C69C4C22C42A8999E32685AD3F65
:10260C00938484048044DC40FD1763D607009C400F
:10261C00B9CF8440C5BF0317C40039E7C17785071C
:10262C002322040623200400232204002324040074
:10263C005CC423280400232A0400232C0400214614
:10264C0081451305C405EFE01F8C232A0402232CBB
:10265C00040223240404232604042285B2402244C9
:10266C0092440249410182801304840671BF914552
:10267C004A85C13588C051FDB1472320F90001447A
:10268C00E9BF797122D44AD052CC56CA5AC85EC618
:10269C0006D626D24ECE2A8AAE8A13048504014968
:1026AC00054BFD5B09ECB25022544A8592540259F9
:1026BC00F249624AD24A424BB24B45618280044491
:1026CC0083294400FD1963D409000040E1BF83D77E
:1026DC00C400637BFB008397E40063877701A685C6
:1026EC005285829A3369A90093848406E1BF1971DB
:1026FC00A6DAAE848395E500A2DC86DE328463DC48
:10270C00050083D7C40023A0060093F7070885E7CC
:10271C00930700401DA0300836C6EF00B023B24628
:10272C00E34105FE7247BD67F98F7977BA9793B786
:10273C0017009CC2F1BF930700041CC0F6506654EE
:10274C00D65401450961828083D7C500011122CC82
:10275C0006CE26CA4AC8898B2E8489CF9307740467
:10276C001CC01CC885475CC8F2406244D244424934
:10277C000561828074003000AA84953FA2452A89A5
:10278C002685312201ED8317C40013F7072069FF5A
:10279C00F19B93E727002316F400C9B797070000B5
:1027AC009387C7D89CD48357C40008C008C893E744
:1027BC0007082316F400A2475CC8B24791CF8315D3
:1027CC00E4002685EF00B01B01C98357C400F19BC0
:1027DC0093E717002316F4008357C4003369F900FC
:1027EC002316240151B7DDC183A7C5FF411122C4B3
:1027FC0006C626C21384C5FF63D307003E94AA8481
:10280C00EF00D01E938741829C4381EF232204006A
:10281C0023A281822244B2402685924441016F005A
:10282C00101D637EF40014403307D4006396E70058
:10283C009843DC43369718C05CC0D9BFBA87D843DD
:10284C0019C3E37DE4FE94433386D700631F8600EF
:10285C001040B29694C33386D700E31DC7FA1043D9
:10286C005843B29694C3D8C375B76375C400B147C7
:10287C009CC04DB71040B306C4006316D700144378
:10288C005843B29614C058C0C0C369B782800111B6
:10289C0026CA93843500F19806CE22CC4AC84EC67F
:1028AC00A104B14763F3F404B14463E2B4042A898C
:1028BC00EF00D0139387418298433A8439E0938791
:1028CC0081829C4391E781454A85812F23A4A18273
:1028DC00A6854A859927FD5963193507B1472320E9
:1028EC00F9004A85EF00B01029A0E3D004FCB147F1
:1028FC001CC10145F2406244D2444249B2490561CF
:10290C0082801C40858F63CF0702AD4663F6F600CC
:10291C001CC03E9404C031A05C406313870223A208
:10292C00F1824A85EF00B00C1305B4009307440004
:10293C0061993307F5405DDF3A94898F1CC05DBF08
:10294C005CC3C5B72287404095BF1304350071980E
:10295C00E30285FCB305A4404A85C125E31C35FB85
:10296C00B5BF1C46FD171CC663DA0700184E63C5BD
:10297C00E700A9476394F5006FF06FFD1C422E85AC
:10298C001387170018C22380B7008280011122CC54
:10299C0026CA4AC84EC652C406CE2A89AE8932848B
:1029AC00B304D6007D5A63149400014509A88345ED
:1029BC0004004E864A8575370504E31645FFF24040
:1029CC006244D2444249B249224A0561828035713F
:1029DC0022CD26CB4AC94EC706CF52C556C35AC1C3
:1029EC00DEDEE2DCE6DAAA89AE843289368401C501
:1029FC001C4D91E35136971700009387A7A9639B51
:102A0C00F40C83A4490083D7C400A18BF5C79C4860
:102A1C00E5C793070002A304F1029307000302D257
:102A2C002305F10222C6930B5002971A0000938AD9
:102A3C006AAA054C294B4A848347040099C36390C6
:102A4C00770FB30C2441638D0C00E6864A86A6856D
:102A5C004E852D3FFD576306F51E9256E69636D2EF
:102A6C0083470400638F071CFD571309140002C829
:102A7C0002CE3ECA02CCA309010482D483450900CC
:102A8C0015465685B92713041900C24759E913F79F
:102A9C00070109C713070002A309E10413F7870014
:102AAC0009C71307B002A309E10483460900130701
:102ABC00A0026380E608F2474A8481462546034714
:102ACC00040093051400130707FD6379E60AB5CAE1
:102ADC003ECE85A8971700009387C79D6395F40099
:102AEC0083A489000DB7971700009387A798E39CE0
:102AFC00F4F083A4C90001BFA6854E85EFF02FF139
:102B0C0009D97D55FA406A44DA444A49BA492A4AF5
:102B1C009A4A0A4BF65B665CD65C0D6182800504B2
:102B2C0021BF330555413315AC00C98F3EC82289EE
:102B3C00B1B7324793064700184336C663490702BC
:102B4C003ACE034704009307E002631FF7040347E0
:102B5C0014009307A002631BF702B2470904138702
:102B6C0047009C433AC663C107023ECA35A83307E7
:102B7C00E04093E727003ACE3EC8E1B7B38767033E
:102B8C0085462E84BA9725BFFD57C5B7050402CAE2
:102B9C00814681472546034704009305140013071B
:102BAC0007FD6376E606F1F2834504000D46171522
:102BBC0000001305A592312D11CD971700009387B6
:102BCC00E7911D8D93070004B397A70042450504B8
:102BDC005D8D2AC88345040019461715000013059E
:102BEC002590130914002304B102E5233DC197D7A6
:102BFC00FFFF9387674095E74247B247137707106B
:102C0C0009CF91073EC69257D2973ED22DB5B387C6
:102C1C00670385462E84BA97BDBF9D07E19BA1072C
:102C2C00D5B7780097060000938686D626860C08C2
:102C3C004E8597000000E7000000FD572A8AE31438
:102C4C00F5FC83D7C40093F70704E39C07EA1255FD
:102C5C0055BD780097060000938686D326860C080F
:102C6C004E85012AD9BF797156CA9C49BA8A9845B2
:102C7C0022D426D24ECE52CC06D64AD05AC85EC6E4
:102C8C00AA892E84B284368A63D3E700BA879CC0A3
:102C9C000347340419C385079CC01C4093F70702F3
:102CAC0081C79C4089079CC00329040013796900E3
:102CBC00631A0900130B9401FD5B5C449840998FD7
:102CCC00634CF9041C408346340493F70702B33673
:102CDC00D000A5EB13063404D2854E85829AFD579D
:102CEC006303F5041C4011469840998B544481446D
:102CFC006397C700B384E64063D3040081441C444B
:102D0C0018486354F700998FBE94014969047D5BA0
:102D1C0063982405014509A885465A86D2854E85B7
:102D2C00829A631E75017D55B250225492540259F9
:102D3C00F249624AD24A424BB24B45618280050944
:102D4C00ADBF3307D40013060003A301C704034728
:102D5C00540493871600A2978906A381E7049DBFAC
:102D6C0085462286D2854E85829AE30E65FB05093F
:102D7C0045B7797122D426D24AD04ECE06D652CC43
:102D8C0056CA5AC8B68983C68501930790063289FC
:102D9C00AA842E8413863504638DF60263E2D7066B
:102DAC00930780056387F61863EDD70063800622CE
:102DBC0093073004638EF60A930A24042301D40487
:102DCC00C9A0930730066385F60A93074006E3957E
:102DDC00F6FE1C40084393F6070893054500C5C64C
:102DEC001C410CC363D807001307D002B307F04093
:102DFC00A301E404970600009386066F29476DA88B
:102E0C00930700076383F61663E5D7029307E00682
:102E1C00638AF6189307F006E390F6FA0C401C430D
:102E2C0013F80508138547006307080608C39C437D
:102E3C008DA893075007E383F6FE93078007638AF8
:102E4C00F61293073007E399F6F61C43D0418145FF
:102E5C009386470014C383AA070056859D2E01C58F
:102E6C003305554148C05C401CC8A301040471A83B
:102E7C001C43930A2404938647009C4314C32301E8
:102E8C00F4048547D5B793F607041C410CC3B9DA93
:102E9C00C207C18781BF93F5050408C3C9D983D77D
:102EAC0007001307F0066387E60E9706000093866B
:102EBC00A6632947A30104044C400CC463C5050058
:102ECC0008406D9908C099E3B28A91CDB28AB3F5E6
:102EDC00E702FD1AB69583C505002380BA00B3D569
:102EEC00E70263FFE70AA147631EF7001C40858BCE
:102EFC0091CB58401C4863C7E70093070003A38F8E
:102F0C00FAFEFD1A3306564110C84E87CA86700069
:102F1C00A2852685893B7D5A631E450B7D55B25093
:102F2C00225492540259F249624AD24A424B4561A8
:102F3C008280A382D504970600009386E65A0C4043
:102F4C00084313F805081C411105630D080208C35A
:102F5C0013F7150001C793E505020CC04147B9FBF7
:102F6C000C4093F5F5FD0CC0B1B79C4193E70702FB
:102F7C009CC193078007A302F40497060000938674
:102F8C00E65775BF13F8050408C3E30308FCC20732
:102F9C00C1837DBF9706000093860655214719BF54
:102FAC00AE8735B794411C43CC4913F806081385FA
:102FBC0047006306080008C39C438CC301A808C3E0
:102FCC0093F606049C43F5DA2390B70023280400FB
:102FDC00B28A25BF14485686CA8526858299E30F86
:102FEC0045F31C40898B8DE7B2474844E359F5F211
:102FFC003E8535B785465686CA8526858299E30F68
:10300C0065F1050A5C443247998FE345FAFEE9BF46
:10301C00014A930A94017D5BF5B7411122C42A84BD
:10302C002E8523AA015406C6EFE0DFE8FD5763178F
:10303C00F500938741559C4391C31CC0B240224478
:10304C0041018280411122C42E848395E50006C67D
:10305C004522634905007C48AA977CC8B2402244AB
:10306C00410182808357C4007D777D17F98F231629
:10307C00F400EDB783D7C500011122CC26CA4AC88B
:10308C004EC606CE93F70710AA842E843289B689D1
:10309C0091C78395E5008946014631228357C400C8
:1030AC007D777D17F98F2316F4008315E4006244B5
:1030BC00F240CE864A86B24942492685D244056101
:1030CC003DA8411122C42E848395E50006C6E12853
:1030DC00FD570357C400631BF500FD77FD17F98FEF
:1030EC002316F400B2402244410182808567D98FB7
:1030FC002316F40068C8FDB78395E50005A84111B7
:10310C0022C42A842E85B285368623AA015406C68B
:10311C00EFE0DFD7FD576317F500938741559C43CC
:10312C0091C31CC0B240224441018280411122C48F
:10313C002A842E8523AA015406C6CD20FD57631779
:10314C00F500938741559C4391C31CC0B240224467
:10315C0041018280411122C42A842E85B28523AA82
:10316C00015406C6D120FD576317F50093874155CE
:10317C009C4391C31CC0B240224441018280411146
:10318C0022C42A842E8523AA015406C66520FD5725
:10319C006317F500938741559C4391C31CC0B24003
:1031AC00224441018280411122C42A842E85B28599
:1031BC00368623AA015406C66120FD576317F50015
:1031CC00938741559C4391C31CC0B240224441019A
:1031DC00828093F5F50F2A966314C5000145828011
:1031EC0083470500E38DB7FE0505FDB7828082801D
:1031FC00411122C42A842E85B285368623AA015415
:10320C0006C6A920FD576317F500938741559C43CB
:10321C0091C31CC0B24022444101828093078005B7
:10322C0023AAF1547D5582809307800523AAF1547B
:10323C007D5582809307800523AAF1540145828035
:10324C009307800523AAF1547D558280930780054E
:10325C0023AAF1547D55828010D2FF1F78D1FF1F15
:10326C0074D0FF1F74D0FF1F74D0FF1F18D1FF1F25
:10327C0000D0FF1F74D0FF1F22D1FF1F38D1FF1FBA
:10328C000AD2FF1F0A537461727400004649464FFC
:10329C002066756C6C21202564203C2025640A0076
:1032AC0009024B000201008030080B0002020201EF
:1032BC0000090400000102020100052400100105B0
:1032CC0024010001042402020524060001070584E0
:1032DC000308000A09040100020A000000070501A6
:1032EC0002400000070581024000000012010002AC
:1032FC0002000040861A40800030010203010000E9
:10330C000E037700630068002E0063006E0000005F
:10331C000C0343004800350038007800303132335C
:10332C0034353637383961626364656600000000F5
:10333C00000001CC01D8001401F0003C002801E48D
:10334C0001A0006C007801B40050019C018800447D
:10335C004932433A205365742064656661756C7418
:10336C0020434647000000004932433A2045727220
:10337C006F7220777269746520616464723A2025DB
:10338C003032783A253032782C20646174613A20DE
:10339C0025303478210D0A004932433A20457272A7
:1033AC006F722074696D696E67202D20737465705F
:1033BC0020726561643A2025692075732C2069326E
:1033CC006320636C6B3A202569206B487A210D0AC7
:1033DC00000000004932433A205365742072656145
:1033EC0064204932432061646472210D00000000A6
:1033FC004932433A20627566666572206F76657253
:10340C00666C6F77210D00004932433A2045727289
:10341C006F72207772697465204346470000000084
:10342C0000001027E80380000000800005C0800029
:10343C0005400000000081018102000000008000B6
:10344C000000000000000000CEE8FFFFF6E8FFFFE0
:10345C001EE9FFFF36E9FFFF50E9FFFF60E9FFFFC0
:10346C0088E9FFFFB0E9FFFFC8E9FFFFE2E9FFFFD2
:10347C000000000000000000000000000000000040
:10348C000000000000000000000000000000000030
:10349C000000000000000000000000000000000020
:1034AC000000000000000000000000000000000010
:1034BC000000000000000000000000000000000000
:1034CC0000000000000000000000000000000000F0
:1034DC00232D302B20000000686C4C00656667457E
:1034EC0046470000303132333435363738394142B3
:1034FC004344454600000000303132333435363712
:10350C0038396162636465660000000004030904D5
:04351C00480E002035
:103520000E03310032003300340035003600000055
:10353000000000009C340000BC3400007C3400001B
:10354000000000000000000000000000000000007B
:10355000000000000000000000000000000000006B
:10356000000000000000000000000000000000005B
:10357000000000000000000000000000000000004B
:10358000000000000000000000000000000000003B
:08359000001C0020480E002081
:00000001FF
