:040000006F10C04C71
:10000400000000000000000090000020AC0F002061
:10001400A9BDF9F3900000200000000000000000DA
:10002400900000209000002000000000000000006C
:10003400900000200000000090000020000000005C
:1000440090000020900000209000002090000020EC
:100054009000002090000020D60200209000002094
:10006400F006002090000020900000209000002066
:1000740090000020900000209000002090000020BC
:1000840090000020900000209000002090000020AC
:1000940001A0011122CC06CE3784004083476402BC
:1000A40005458D8B95C713854103971000E0E780C4
:1000B40080612AC621CD9307000463D3A7003EC6FE
:1000C400700093850114138541039D2A11C50145D0
:1000D400F240624405618280B247B7E600E0370629
:1000E400400023A4F1803787004093F7F70F2302E1
:1000F400F70223A0C6180F1000008347670293F786
:10010400C70F2303F70223A0C610D1B793878180BA
:10011400984393070004E31CF7FA23A40180230205
:10012400040237E700E0B70640002320D7180F1079
:1001340000008347640293F7C70F2303F4022320CC
:10014400D71079B7797122D426D24AD04ECE52CC68
:1001540056CA06D61384C18005499389011893842D
:10016400011C138A4103973A00E0938A2A7183475A
:10017400040093F7F70F9DCB834704006376F902DD
:1001840003460400CE852685971000E0E78060785A
:100194002AC619C97000A6855285212811C556851D
:1001A400972000E0E780C058238601807D2BD53559
:1001B4007DBF49C5AA87114521C683D6070003D749
:1001C4008700369783D62700158F8356060042078B
:1001D40041836372D70241113686BA85173500E030
:1001E4001305856B06C6972000E0E7808042B24085
:1001F4000545410182800D4501C70145014795E54B
:1002040082803385E5008348050003D8A70003D521
:100214002700050733780501C843429523001501DB
:1002240003D5270005052391A70013150701418174
:10023400E369D5FC2310D6000145828011458280F4
:10024400AA871145B1CF29CE83D6070003D727004B
:10025400158F83560600420741836373D700BA861D
:10026400C206C18209450DCF01476366D70023103A
:10027400D6000145828003D5070003D8A700337850
:100284000501C8434295034805003385E500050789
:100294002300050103D5070005052390A700F1B746
:1002A400828083C7C1809DE715C59307000463F06E
:1002B400A7022386F1809387C18003C60700938534
:1002C400011013850118172300E0670023292386F2
:1002D400A180D5B78280011122CE26CC4ACA4EC84D
:1002E40052C6B787004003C7670003C4770013777B
:1002F400F70F937627006386063C1374F40F137785
:100304000403930600036305D7021377F4039306EB
:100314000002630BD70C63E2E6088546630FD70A35
:1003240091466305D714B787004009472383E70044
:1003340062046184635C041E9387010403D767002D
:1003440003C9010413760906239AE18003C7170041
:10035400A38BE180930620FC378700402301D7025A
:10036400938601813E876300061213071002631A05
:10037400E92683C6718113072002639EE60083C7C2
:10038400270011670507858B2390E1182381F11855
:100394008D472386F180814695AC93061002630550
:1003A400D70293064002E310D7F803C72703134785
:1003B40007042389E70203C727031377C70F1367CB
:1003C40027002389E70285B703C767021377C70F9E
:1003D400136727002383E702B9B71377040421D7EF
:1003E40003C587007D3D81B79386018103C7718171
:1003F40095453686630EB70499466316D70603D926
:10040400418193070004CA8463F427019304000420
:1004140083290600C204C18013FAF40F2686330927
:100424009940CE8513850104CE94972000E0E7809F
:10043400E012239A218123A89180B787004023806A
:10044400470303C72702134707042381E702E1BDDB
:1004540003C7370083C6460013770708558FA38167
:10046400E7000947DDB723800702E5BF13770404DB
:10047400E30B07EA03C72703134707082389E702A7
:1004840083C787004DB583C7718129466365F60824
:10049400173600E01306463B8A07B2979C43B2978F
:1004A400828783D7210413D7870009466308C708C6
:1004B4008D45630FB70885476316F70A973700E041
:1004C4009387874323A8F1800144C947C207C183A6
:1004D40003D7418163F4E700239AF18003D64600F1
:1004E4009307000483A9060063F4C70013060004FD
:1004F40093140601C1802686CE85138501049720B6
:1005040000E0E780A0053386990023A8C180930703
:10051400F00F6318F40CB78700401307F0FC238135
:10052400E702B787004009472383E7007244E244A7
:100534005249C249324A056173002030973700E0BE
:100544009387C73623A8F18001449307B004BDBF45
:1005540093F7F70F85456384B70289CB638AC70293
:100564006381E7041304F00F81478DB7973700E0E8
:100574009387875C23A8F1800144914781BF973713
:1005840000E09387A73823A8F1800144B9473DBF11
:10059400973700E09387873823A8F1800144B14757
:1005A40035B797170000938767F223A8F1800144B9
:1005B4009717000083C787F111BF83472700239A49
:1005C400F18005A083C766002380F10403D741812D
:1005D400854763F8E7008547DDB783572700238BFA
:1005E400F180620913598941E35709DA83D74181BC
:1005F400930600043E8763F4F600130700044207E1
:100604004183998F9376F70F239AF180B78700403F
:100614002380D702130700FC19B7834707008946D4
:10062400FD8B6398D706834747001147638AE70425
:10063400636CF7000547E390E7EE37870040834794
:10064400670293F7370715A813071008638FE700AD
:1006540013074008E391E7EC3787004083472703FB
:1006640093F7C70B93E7270015A03787004083470C
:10067400670293F7C70B93E727002303F70295B7A5
:10068400378700408347270393F737072309F70287
:1006940089BFE39207E8378700408347670293F7EF
:1006A400C70B93E727002303F7024DBF2380010400
:1006B40031BF2390010403D741818947E3F3E7F273
:1006C400FDBD9376170089CEA381070009472381D6
:1006D400E702C9462383D7022389E7020547A9B560
:1006E40093764700E38206E403C7570011472DBD04
:1006F400B727004083C76740858BB5C7411122C621
:1007040083C7413513840135A1C7034664001C40E7
:10071400090603C5070083C517000A0683C7713598
:100724002296A1C3B52E834764008507238BF13439
:1007340018409307270023A8F1340347270009C76B
:100744001387812C6376F7009387212C23A8F13437
:10075400B727004005472383E74032444101730033
:1007640020302D2CC9B77300203003C7513583C7FF
:10077400C12A03C66135638F071A011106CE22CC44
:1007840093860135637BE61013060610198E6364A5
:10079400F608B68583C67135D5C28D46B386D702B1
:1007A40013050010238AD12C9306A003A38AD12C0D
:1007B4009386612D131627002E9610468D06050785
:1007C40013588600A38EC6FE238F06FF4182A38F93
:1007D400C6FEFD176315A7043EC6B247138601354E
:1007E400A38AF1340D47B387E702B6971106639BDA
:1007F400F60283C7412D890770009385412D138527
:1008040041033EC67D3213840182631805101C40E7
:10081400850723A0F182F240624405618280D9FBFE
:1008240002C665BF58428D0693558700A38EE6FE27
:10083400238FB6FE4183A38FE6FE4DBF9396170028
:10084400238AD12C9D46A38AD12C130500109386AC
:10085400612D131627002E96104689060507238F4F
:10086400C6FE2182A38FC6FEFD176315A7023EC6EE
:10087400B24713860135A38AF1348607B697110669
:10088400E389F6F658428906238FE6FE2183A38F77
:10089400E6FEF5B7DDFF02C6E1BFE37EC7F6198EBB
:1008A400E36BF6F603C671359315270029C20D468E
:1008B4003386C702AE96238AC12C1306A003A38AEB
:1008C400C12C3E851386412D91060D0609E5BA9784
:1008D400A38AF13439BFCC427D1513D88500A30F08
:1008E400B6FEC18123000601A300B600F1BF139632
:1008F4001700238AC12C1D46A38AC12CAE961386E9
:10090400412D3E859106090679D1CC427D152300FF
:10091400B600A181A300B600F5B7173500E01305B2
:10092400E513972000E0E780A0E05C40850723A260
:10093400F182D5B58280B7F700E09847DC47011112
:10094400BA85056706CE37580040B7F800E01307AC
:10095400077783574881C207C183B3F6A70095C2BE
:100964000357888101457977130707F0F98F99C7F1
:100974003EC6971000E0E780A0623245F240056170
:10098400828003A6880083A6C8000D8EE373C7FC8B
:10099400971000E0E780C0607D55CDB7011122CCEF
:1009A400375400408357048006CE26CA4AC84EC630
:1009B40052C4858B6384070E83570480131A050180
:1009C400135A0A41C207C18393F7F7DFC207C183F1
:1009D4002310F4809167B367FA002314F4808357DB
:1009E4000480AA84054593E707102310F480328914
:1009F400AE89913741E593970401C1832318F480AC
:100A04000945153F25EDC20993D9090123183481FD
:100A1400130540080D373DE191678507336AFA00F5
:100A24002314448183570480054593E7075023101A
:100A3400F480113721E593E4140093F4F40F2318A0
:100A440094800945CD3D1DE913050004ED351DE5F0
:100A54008357048013050004C207C18393F7F7BFCB
:100A6400C207C1832310F48083570481A300F900D3
:100A7400D93509E5835704812300F900375700402D
:100A84008357078093E707202310F780F2406244DE
:100A9400D2444249B249224A056182807D55FDB75C
:100AA400011122CC375400408357048006CE26CA55
:100AB4004AC84EC652C4858B638C070E8357048084
:100AC400131A0501135A0A41C207C18393F7F7DFCA
:100AD400C207C1832310F4809167B367FA0023141B
:100AE400F48083570480AA84054593E707102310F4
:100AF400F4803289AE89813541ED93970401C18335
:100B04002318F4800945053D41E5C20993D909013B
:100B14002318348113054008393D3DE99167850761
:100B2400336AFA002314448183570480054593E70C
:100B340007502310F480013521ED93E4140093F45D
:100B4400F40F231894800945FD3339E1130500049B
:100B5400DD331DED83570481130500042301F900DF
:100B6400D93B1DE58357048013050004C207C183E4
:100B740093F7F7BFC207C1832310F480835704811E
:100B8400A300F9004D3B09E5835704812300F900D4
:100B9400375700408357078093E707202310F780D7
:100BA400F2406244D2444249B249224A05618280F9
:100BB4007D55FDB773270080218B9387818209CBF4
:100BC4007327008023A4E18298435D9B7310078000
:100BD4000F10000037170040930670052300D70458
:100BE400930680FA2300D7040F1000008346B7044D
:100BF40093F6F60DA305D70423000704732600809B
:100C04009443A18AD18E7390068023A401820F108D
:100C1400000093760502638406180347A700118B2E
:100C240025E773270080218B09CB7327008023A439
:100C3400E18298435D9B731007800F100000371703
:100C44000040930670052300D704930680FA23001E
:100C5400D7040F1000008346A70093E6460023053F
:100C6400D70023000704F32600809843218B558F77
:100C74007310078023A401820F1000001307004B98
:100C8400010001007D176DFF73270080218B09CBC4
:100C94007327008023A4E18298435D9B731007802F
:100CA4000F10000037170040930670052300D70487
:100CB400930680FA2300D7040F1000007D892314C3
:100CC400A700010001000100010023000704F3262E
:100CD40000809843218B558F7310078023A40182D1
:100CE4000F10000073270080218B09CB732700802D
:100CF40023A4E18298435D9B731007800F100000CA
:100D040037170040930670052300D704930680FA32
:100D14002300D7040F1000000F100000B726004076
:100D240013061005A383C68023000704F32600805E
:100D34009843218B558F7310078023A401820F10D1
:100D4400000073270080218B09CB7327008023A424
:100D5400E18298435D9B731007800F1000003717E2
:100D64000040930670052300D704930680FA2300FD
:100D7400D7040F1000008346B70493E60608A305C2
:100D8400D70423000704732700809C43A18BD98FC9
:100D94007390078023A401820F1000008280937651
:100DA4000504638B06140347A700418B25E77327CB
:100DB4000080218B09CB7327008023A4E182984310
:100DC4005D9B731007800F100000371700409306D7
:100DD40070052300D704930680FA2300D7040F106C
:100DE40000008346A70093E606012305D7002300ED
:100DF4000704F32600809843218B558F73100780D6
:100E040023A401820F1000001307007D01000100DC
:100E14007D176DFF73270080218B09CB732700801A
:100E240023A4E18298435D9B731007800F10000098
:100E340037170040930670052300D704930680FA01
:100E44002300D7040F1000009376F50193E60604FF
:100E54002314D7000100010001000100230007044E
:100E6400F32600809843218B558F7310078023A4A9
:100E740001820F100000130760046310E504732758
:100E84000080218B09CB7327008023A4E18298433F
:100E94005D9B731007800F10000037170040930606
:100EA40070052300D704930680FA2300D7040F109B
:100EB4000000B72600400946B5B573270080218B92
:100EC40009CB7327008023A4E18298435D9B7310B0
:100ED40007800F10000037170040930670052300A9
:100EE400D704930680FA2300D7040F100000B72616
:100EF4000040130620053DB573270080218B09CBE4
:100F04007327008023A4E18298435D9B73100780BC
:100F14000F10000037170040930670052300D70414
:100F2400930680FA2300D7040F100000835687002D
:100F340093E6060C2314D700C5BB41118146014634
:100F44008145114506C6192CF3270080A18B938691
:100F5400818289CBF327008023A4F1829C42DD9B0C
:100F6400739007800F100000B71700401307700537
:100F74002380E704130780FA2380E7040F1000009E
:100F840003C76704136717002383E7042380070458
:100F9400732700809C42A18BD98F7390078023A470
:100FA40001820F100000B240410182808146014657
:100FB400814511456522F3270080A18B1387818227
:100FC40089CBF327008023A4F1821C43DD9B73901B
:100FD40007800F100000B7170040930670052380A8
:100FE400D704930680FA2380D7040F100000FD561F
:100FF4002396D70223800704F32600801C43A18B89
:10100400D58F7390078023A401820F100000F3276B
:101014000080A18B89CBF327008023A4F1821C4399
:10102400DD9B739007800F100000B71700409306F4
:1010340070052380D704930680FA2380D7040F1009
:10104400000083C6670493E616002383D704238035
:101054000704F32600801C43A18BD58F739007806F
:1010640023A401820F10000001A0BD473305F5023F
:1010740001007D1575FD8280411122C426C206C679
:10108400AA84014463179400B2402244924441016B
:10109400828005041305803E4204C13F4180DDB7D0
:1010A4002303048015472303E48001002302A48062
:1010B400828083076480E3CE07FE2303048082805A
:1010C40083076480E3CE07FE034544808280830760
:1010D4006480E3CE07FE2302A4808280411126C4EB
:1010E4004AC24EC006C61377F50BAD47AA892E89AE
:1010F40095446306F70019456537653F8D444E8571
:101104004537FD59FD1463983401B240A244124995
:10111400824941018280135509011375F50F453F3A
:101124002209CDB7011126CC06CEB70408005137E9
:101134001545BD37713769372AC6A53F32459377C0
:10114400150089EB136515001375F50FF240E244A1
:1011540005618280FD14E9FC0145CDBF397126DCAF
:101164004ADA4ED852D656D45AD25ED006DE62CE71
:1011740066CCB7E700E07D5783AA070022C603AA1E
:10118400470023A0E71823A2E718B7170040130766
:1011940070052380E704130780FA2380E70483C7DC
:1011A4004704930B75FFB684E20793FBFB0F854658
:1011B400AA892E8B328937240040E187015763FACC
:1011C40076016308D5008946130700026313D5002E
:1011D4000157D98F93F7F70FB71C00402382FC0403
:1011E40011472303E4801305F00F5D3D094CD1350D
:1011F400636D7C11B7050700DA95378707007955C9
:1012040063F2E504B3879500636EF702370B0800B9
:10121400A94733EB65016399F90689E48144513D9B
:1012240026850DA0DA850945553D05090345F9FFD5
:10123400FD14050B693D81C49377FB0FFDF7DD3584
:1012440069FD7D55B7170040130770052380E70437
:10125400130780FA2380E70403C74704418B2382E2
:10126400E704F250B7E700E023A0571123A2471187
:10127400E25432445259C259325AA25A125B825B26
:10128400724CE24C21618280A5476395F906856919
:101294001309F00FB3069900B3742B01B6941349E4
:1012A400F9FFB3749900856B33796901416B9387B6
:1012B400F9FFB3F7270199E363FC340193D949009B
:1012C400C147E3E637FF99BF0569C1697D19D9B7FD
:1012D4001305800D63886901130500026384790195
:1012E40013051008CA85DD3B353D21DD4E99B384D5
:1012F4003441D9B7DA852D45D533CA94E30099F240
:1013040005097D3BA30FA9FED5BF9387F9FF93F78A
:10131400F70F6361FC0C83C71C0413073008631FB9
:10132400F70437070800636BEB04B3079B00B706A9
:10133400100063F5D704334BEB0089476393F90638
:101344008980D549E38C04ECDA850945413B1109D0
:101354000327C9FF91472320E48003076480E34EF9
:1013640007FE23033481FD17EDFBFD14110B81C42B
:101374009377FB0FE9FF7D3371F5E1B5B7170040B3
:1013840003C75704B70708001377070219E3B787A1
:1013940007007955E378FBEA33079B00E3FFE7F89E
:1013A40055B58547E382F9F2DA852D45053B9389E6
:1013B400F4FFE38504E6293393F7390091EB8326A0
:1013C40004800327090093074900E39AE6E43E8971
:1013D400CE84F1BFB5476396F9001305900BC9316C
:1013E40035BDB1471305B00AE38BF9FE9947639104
:1013F400F904B7050800B365BB002D45C531814428
:101404008D4BA14975396396740183270480232089
:10141400F9008504E39834FF8327048013172B0114
:10142400635507002312F900D5BB2322F900FDB34D
:101434009D476399F90281451305B0044531BD44C4
:101444002320090023220900FD599D3993F77400D4
:10145400CA9703C70700FD14398D2380A700E396BC
:1014640034FF6DBBA1476392F9046D398144630D68
:101474000B008D479304C0036308FB00930400052D
:1014840063048B01930440041375C507E30895D8DE
:101494001945393139390545213126850D39094533
:1014A4003D314931E31C05D669BB91476399F90085
:1014B40013056006F536F53E130590090DB7E38F65
:0814C40009D4F154A9BB00009A
:1014CC00971100209381C186177100201301C1B2BE
:1014DC001305400097F5FF1F938505B217060020F2
:1014EC00130606FE63FAC5008322050023A05500EF
:1014FC0011059105E3EAC5FE172500001305856368
:10150C00970500209385C5FB1386818063FAC5007F
:10151C008322050023A0550011059105E3EAC5FEC1
:10152C00138581809385C1756377B50023200500F1
:10153C001105E36DB5FEFD42739002BC8D427390B4
:10154C004280930280087390023097F2FF1F9382BF
:10155C00A2AA93E2320073905230371700409307DF
:10156C0070052300F704930780FA2300F7040F108B
:10157C0000003C47B70600FAE116F58FB7060006E7
:10158C009506D58F3CC7970200009382820E73900C
:10159C001234730020303D432A876373C302937760
:1015AC00F700BDEFADE5937606FF3D8ABA960CC306
:1015BC004CC30CC74CC74107E36BD7FE11E28280CA
:1015CC00B306C3408A069702000096966780A60071
:1015DC002307B700A306B7002306B700A305B7007F
:1015EC002305B700A304B7002304B700A303B70077
:1015FC002303B700A302B7002302B700A301B7006F
:10160C002301B700A300B7002300B700828093F535
:10161C00F50F93968500D58D93960501D58D61B701
:10162C00939627009702000096968682E78086FAAA
:10163C009680C1171D8F3E96E374C3F8A5B7371774
:10164C0000408327870A411106C693E7072023240D
:10165C00F70A854513050010EF0070488D451305FA
:10166C000020EF00D047B24041016F00B06841113B
:10167C001305800406C697F0FF1FE7802053C1377F
:10168C00172500001305451EEF108009056613068B
:10169C000680970500209385E5EC138541032D20EA
:1016AC00B7F700E0154798C3EF004070892097F01A
:1016BC00FF1FE780A0A8835725000355050033853D
:1016CC00A740420541818280AA8705C21307F6FF15
:1016DC00B376C700054599EA23A00700CCC3239431
:1016EC00C7002395E70001458280054582804111A2
:1016FC00B787004006C6B7F5070023800700814670
:10170C0013860104E105194597000020E78080A4A9
:10171C009307E030170700202314F7DA01469707E8
:10172C0000209387E7D99386010417250000130541
:10173C00E51E0D483387C60003470700A381070049
:10174C00A3820700935547003D8BAA952A9783C522
:10175C0005000347070005062381B7002382E70035
:10176C009107E31906FDB78700401307C0FCC206BA
:10177C002386E700C1822398D70013870110239A90
:10178C00E70029472381E70249472383E7020947FA
:10179C002389E702A3810700130790022380E70047
:1017AC00B716004003D7A6011367070C239DE6006C
:1017BC007D572383E7001D472381E700130710F8AB
:1017CC00A380E700B240B7E700E03707400023A052
:1017DC00E71041018280238A0134930700F82389A2
:1017EC00F12AA389012A238A012A130700FCA38A60
:1017FC00E12A03474500238BF12A2382F12C33374E
:10180C00E0001207238CE12A238DF12AA38C012AF4
:10181C002D47A38DE12A238E012A13070004A38EE2
:10182C00E12A2381F12C15479147A38B012AA3812F
:10183C00E12CA382F12C2383012C834615000D4649
:10184C00639DC6088947A38BF1342D66834635000A
:10185C00834725000147A206DD8E9D459727000092
:10186C009387070D03D5070063F6A60005078907C4
:10187C00E31AB7FE9316670093173700D58FD18FF5
:10188C0093169700D58FC207C187930600F8C2073D
:10189C00C183238FD12A8546A38FD12A2380F12C93
:1018AC00A183A380F12C9307C0FD2388F12A9547CF
:1018BC00A388F12AA386012A97270000938747085B
:1018CC0006073E97835707002387F12AA183A38736
:1018DC00F12AD1472386F12AE5A909466399C60066
:1018EC00A382E12C8547A38BF134256685B7A381B0
:1018FC00F12C8547A38BF134296689BF2386012AF5
:10190C00C1A903C70500930727006365F6280111D9
:10191C0022CC4AC806CE26CA83C71500B1462E89EA
:10192C00A300F5002A84638DD71863E2F604894678
:10193C006385D71063ECF600D5C38546638ED70A52
:10194C0093E707F8A300F400094501A80D47638548
:10195C00E71E2D470145E395E7FE9307E5FF2300BE
:10196C00F400F2406244D244424905618280E1466F
:10197C006380D71063E2F60441476389E716454755
:10198C00E390E7FC83C44135238A013483C75500B7
:10199C0003C645000345290083C53500A2075D8EAB
:1019AC00EF00A06A63120518114693052900130570
:1019BC002400EF00B039ADA2930680036384D70CEA
:1019CC0093060004E39ED7F6014541DB83C725004F
:1019DC006384071A2AC62D2B324541B79307400260
:1019EC002301F500C147A301F5009D472302F50033
:1019FC00A3020500194595B715C7238A013493072F
:101A0C0060021376F70F63F4E70013066002930588
:101A1C0029001385C12AEF0070335D2E01E5834741
:101A2C00140039BF130660029385C12A13052400E4
:101A3C00EF00D031130580020DB7930720F8E303B4
:101A4C0007F023010500A301050023020500A302F2
:101A5C00050083C72500858B99E30D45FDBDC12C81
:101A6C006DFD8347240093E717002301F400F5B7BD
:101A7C0009C783C72500A38BF1349387013583C72E
:101A8C007700E5B71DC395471376F70F63F3E700AF
:101A9C0015469305290013858181EF00302B834770
:101AAC00290089CF138581813D331546938581812A
:101ABC0013052400EF0090291D4545B58135F5B778
:101ACC008947E3FEE7F483C435001306D7FF890585
:101ADC001105EF00E06321D58347490013F5F407A6
:101AEC00A301A4002301F400110585BD83C4413575
:101AFC00238A01341306450083C5350003452900AC
:101B0C0097F0FF1FE78000E905E1834739000347A1
:101B1C002900A207D98F2301F400A183A301F400AB
:101B2C001945238A913415BD83471400094593E761
:101B3C0007F8A300F400F5B7138701821C4393D672
:101B4C0087002301F500A301D50093D60701E1839B
:101B5C00A302F5005C432302D50013D787002303AF
:101B6C00F500A303E50013D70701E1832304E50087
:101B7C00A304F5002945D5B3371700408327870CFC
:101B8C00B7068000F58F2324F70C91E35126E12052
:101B9C000145E1B3014582802E96172800001308F9
:101BAC0028DB6393C500828003C705009376F5009C
:101BBC008606C2969357450003D506009376F70028
:101BCC008606C296A98F03D5060011830607A98F36
:101BDC0093F6F7008606429713D54700C2968357B3
:101BEC00070083D6060085053D8D358D5DBF938737
:101BFC0001351387212C2383070098C3A382070088
:101C0C008280238A0134B7270040238007408280DA
:101C1C00B727004009472380E74011472380E7405E
:101C2C0082809307C0033305F502B72700400947AC
:101C3C0023A6A7402380E7402380074003C7274003
:101C4C00136717002381E740B7E700E0370700016F
:101C5C0023A0E710828041112386012A06C655373E
:101C6C0083C7A12CB9CB2D2603D6C12C83C5B12C8F
:101C7C0003C5A12CD92E09CD83D6C12C03C6B12CFA
:101C8C0083C5A12C17250000130505D0EF00701794
:101C9C0003C5E12C1DC103D6012D83C5F12C75267E
:101CAC0009CD83D6012D03C6F12C83C5E12C172554
:101CBC000000130565CDEF00D014792C37170040C8
:101CCC008327C70CB7068000B240D58F2326F70CAC
:101CDC00814537358000410175A54111930680027D
:101CEC001386C12A81452D4506C697F0FF1FE78054
:101CFC0060460DC517250000130585C7EF0050225F
:101D0C001306600297250000938505D21385C12A1E
:101D1C00EF00D0030545B2404101828041651306B6
:101D2C0080029385C12A7D15853D69F5EDB7416526
:101D3C003971130660029385C12A7D1506DEA93D13
:101D4C002399A12C93068002300081452D4597F0F4
:101D5C00FF1FE780204009ED130680029385C12AFE
:101D6C002800EF00407C09E50145F250216182809A
:101D7C009306001001468145254597F0FF1FE7802B
:101D8C00603D09C917250000130585C8EF005019DF
:101D9C000545E1BF930680021386C12A814529457A
:101DAC0097F0FF1FE780003B71FD7DBF411106C618
:101DBC002D37371700408327C70CB7068000B24079
:101DCC00D58F2326F70C81453735800041015DAB5B
:101DDC000111238A013406CE22CC26CA4AC84EC62B
:101DEC0052C483C7713503C7C12AADC7930780029C
:101DFC0063F4E7002386F12A83D7012B9394170110
:101E0C00C5809386C4F91307C076637AD7006177CF
:101E1C00F98F93E7C75D2398F12A9304C05D8D2A4F
:101E2C0083C7D12A03D4E12A3314F400C5679387FE
:101E3C000717B3D797026372F4022386012AD133B2
:101E4C002686A28517250000130505B7EF00607BD9
:101E5C000145B5A09307C00361BF513B83C7C12A9D
:101E6C00BDC722857D3B23A0018223A2018221696B
:101E7C009384C12A9389C12B172A0000130ACAB074
:101E8C001309098003C564001DC503D6840083C5EE
:101E9C007400652A01CD2386012AA53383D68400DC
:101EAC0003C6740083C564005285A12F4A85910432
:101EBC001129E39934FD83C7C12A81EF0545F2400E
:101ECC006244D2444249B249224A05618280153BA0
:101EDC0079BF938701359C4383C707009DC3930744
:101EEC00C0033304F4022285F12E03C771358547F4
:101EFC0063F4E7002285F9268547238AF134093BF0
:101F0C0075BF172500001305E5AEEF00700189B70A
:101F1C00411185453735800006C6AD21096513058D
:101F2C0005E04D26371700408327870CB706800045
:101F3C008D45D58F2324F70C37058000A1219145C1
:101F4C0037058000812175651305054CA52EB2401F
:101F5C002386012A4101ADBDB757004003D7078046
:101F6C00058B15C703D70780A166558F2390E78093
:101F7C0003D70780460745832390E78003D7078064
:101F8C0042074183799B420741832390E7808280FB
:101F9C00411122C403C4112B83C7012B2204854594
:101FAC000D655D8C06C6F92EB757004003D7078028
:101FBC00A16642074183799B420741832390E780C6
:101FCC0003D70780558F2390E78003D70780FD1632
:101FDC00758F2390E78003D74780E18E4204420738
:101FEC004183137707FC1367C7032392E7804D47A0
:101FFC002390E7821D6713070753B356D70241841A
:10200C00239ED78003D70780136717002390E780A0
:10201C006348040003D70780136707082390E78001
:10202C00B757004003D70780B24022441367A7403C
:10203C002390E780116723940780130707082394E4
:10204C00E7802392078041018280011122CC375412
:10205C0000408357048006CE26CA4AC84EC6858BDC
:10206C00D5C783570480AA84B289C207C18393F76A
:10207C00F7DFC207C1832310F4809167C98F231443
:10208C00F4808357048005452E8993E707102310AD
:10209C00F48097F0FF1FE780808931E9C204C1808A
:1020AC0023189480094597F0FF1FE780408821E1B1
:1020BC00420913590901231824811305400897F08C
:1020CC00FF1FE780C08605E593D789002318F480AD
:1020DC001305400897F0FF1FE780608509E9231876
:1020EC0034811305400897F0FF1FE7804084375771
:1020FC0000408357078093E707202310F780F240B6
:10210C006244D2444249B249056182807D55C5BFC3
:10211C00797126D2B754004083D7048022D452CC94
:10212C0056CA06D64AD04ECE5AC85EC662C466C2DD
:10213C00858B83CA050003CA15007D54638A071476
:10214C0083D704801167AA89C207C18393F7F7DF8D
:10215C00C207C1832390F48083C7250005452E89CF
:10216C00D98F2394F48083D70480B28B93E7071024
:10217C002390F48097E0FF1FE780607B2A84631133
:10218C00051083472900094593FAFA072398F48030
:10219C0097E0FF1FE780A079130C39002A84138B7A
:1021AC00FBFFFD5CB38A5B4161EC63109B0793748E
:1021BC00FA07894A375A0040E1C4639054118307E7
:1021CC00190063CC070E83570A80C207C18393F7AB
:1021DC00F7BFC207C1832310FA801305000497E0F0
:1021EC00FF1FE780C07411ED83570A81138B190010
:1021FC00130500042380F90097E0FF1FE78020738C
:10220C00DA89FD1455D92A84A5A8050C8347FCFF4F
:10221C00130540082398F48097E0FF1FE780207196
:10222C002A841DED631E5B038307090063CC070240
:10223C0083D78480054593E717002394F48083D7D4
:10224C00048093E707502390F48097E0FF1FE7800A
:10225C00006E29CD094597E0FF1FE780406D2A8469
:10226C007D1B99B783D704801305400893E707209B
:10227C002390F48097E0FF1FE780606B2A844DD990
:10228C00375700408357078093E707202310F780C8
:10229C002285B250225492540259F249624AD24ACF
:1022AC00424BB24B224C924C4561828083D7848046
:1022BC0093F7F70F2398F48071BF83570A8093E745
:1022CC00074011BFB7F700E09847DC4737F600E04E
:1022DC00BA8618465C46158FE36DA7FE828091473F
:1022EC0063EEB70217170000130707788A05BA9533
:1022FC009C41BA978287B717004003A7470B134539
:10230C00F5FF698F23AAE70A03A7070B698F23A898
:10231C00E70A03A7070A798D23A0A70A8280B717BB
:10232C00004083A6470B1347F5FFF98E23AAD70A63
:10233C0083A6070B558D23A8A70A83A6070A758FBA
:10234C0023A0E70A8280B717004003A7470B498FE9
:10235C0023AAE70A03A7070B1345F5FF45BFB717D9
:10236C00004083A6470B1347F5FF758F23AAE70A96
:10237C0003A7070A598D4DB7B717004003A7470BA2
:10238C00498FEDB7914763EEB7021717000013079B
:10239C00E76E8A05BA959C41BA978287B7170040B9
:1023AC0003A7470D1345F5FF698F23AAE70C03A775
:1023BC00070D698F23A8E70C03A7070C798D23A0C1
:1023CC00A70C8280B717004083A6470D1347F5FF73
:1023DC00F98E23AAD70C83A6070D558D23A8A70C1D
:1023EC0083A6070C758F23A0E70C8280B7170040DB
:1023FC0003A7470D498F23AAE70C03A7070D134525
:10240C00F5FF45BFB717004083A6470D1347F5FFEF
:10241C00758F23AAE70C03A7070C598D4DB7B71777
:10242C00004003A7470D498FEDB7B717004003D500
:10243C008700420541819377050491EB9377F50171
:10244C003755E801130505803345F50282809377F3
:10245C00050C130700046397E7009377F5013745E4
:10246C009C1CCDB72165130505D082808147373779
:10247C000040A14663C4C700328582800345B74043
:10248C00E38EA6FE3385F50003450500850723047E
:10249C00A740CDB797F7FF1F938787099C431387F6
:1024AC00C1753E95636EE500176700201307C7944E
:1024BC006368A70017F7FF1F232CA7063E858280B1
:1024CC00FD57EDBF411122C406C62A84B93F2947E6
:1024DC00B307E502B2408D83B3D787022244950738
:1024EC00B3D7E70237370040C207C1832316F74042
:1024FC0041018280716541111305052006C6D9374B
:10250C00B7370040130770F82381E7400D47A381CC
:10251C00E74013070004A380E74005472387E74003
:10252C00B2404101828001476314E600014582807C
:10253C00B307E5000507B386E50083C7070083C62C
:10254C00F6FFE383D7FE3385D7408280B3C7A5005F
:10255C008D8B3307C50081E78D4763EEC700AA87D3
:10256C006370E50A83C6050085078505A38FD7FE32
:10257C00E3EAE7FE828093763500AA8791CA83C688
:10258C00050085078505A38FD7FE93F63700FDB7A9
:10259C009376C7FF138606FE63F0C70683A3050078
:1025AC0083A2450083AF850003AFC50083AE050150
:1025BC0003AE450103A3850183A8C501938545029C
:1025CC0023A0770003A8C5FF23A2570023A4F7017B
:1025DC0023A6E70123A8D70123AAC70123AC6700D0
:1025EC0023AE17019387470223AE07FF75B79041BF
:1025FC009107910523AEC7FEE3EBD7FEE3E4E7F6C4
:10260C00828039713EDA2ED232D436D63AD842DCB8
:10261C0046DE97F7FF1F9387E7F122CC804326CA4B
:10262C0006CEAA8409C41C4C99E3228535230C449C
:10263C0054102686228536C6EF007017F24062448D
:10264C00D24421618280011126CA4AC806CE22CC0E
:10265C004EC652C4AA842E8901C51C4D91E3ED29A6
:10266C009C4C804499E32685C529971700009387D5
:10267C002744631CF402C0408357C400A18BB1C72C
:10268C001C48A1C7FD59294A1C4483450900FD1764
:10269C00B1E91CC463DE07062286A94526854128BC
:1026AC00FD576308F502294535A09717000093875D
:1026BC0027426314F4008044C1B797170000938736
:1026CC00273DE31BF4FAC04445BFA28526850522AD
:1026DC0055D97D55F2406244D2444249B249224A0E
:1026EC00056182801CC4050963D70700184C63CBB5
:1026FC00E700638945011C401387170018C023802D
:10270C00B70059B7228626851D20E31F35F7D1B7B0
:10271C001C401387170018C029472380E70061B7B6
:10272C0097F7FF1F938707E1AA85884329BF0111FB
:10273C0022CC26CA4AC806CE4EC6AA842E8932841A
:10274C0001C51C4D91E30929971700009387473663
:10275C006319F406C0401C4C1CC48357C400A18BE5
:10276C00C9C31C48BDCF1C4808409379F90F137995
:10277C00F90F1D8D5C486346F500A2852685752CE6
:10278C002DE51C440505FD171CC41C4013871700C0
:10279C0018C0238037015C486389A7008357C400A5
:1027AC00858B81CBA9476316F900A28526857124F8
:1027BC000DEDF24062444A85D2444249B24905616A
:1027CC008280971700009387A7306314F40080442D
:1027DC0059B7971700009387A72BE31EF4F6C04454
:1027EC009DBFA285268521203DDD7D59D9B741119C
:1027FC0097F7FF1F938707D426C2844322C44AC08D
:10280C0006C62A892E8489C49C4C99E32685A92660
:10281C00971700009387C729631CF402C040031765
:10282C00C40093170701C18393F68700B5EE93F6A6
:10283C0007019DEEA5472320F90013670704231613
:10284C00E4007D55B2402244924402494101828009
:10285C00971700009387C7276314F4008044C1B70F
:10286C00971700009387C722E31BF4FAC04445BFB7
:10287C00918B8DC74C5889C9930744046384F50028
:10288C004A859123232A04028357C400232204007F
:10289C0093F7B7FD2316F4001C481CC08357C400E3
:1028AC0093E787002316F4001C4881EF8357C4007C
:1028BC001307002093F707286385E700A2854A8554
:1028CC00A5218357C40013F7170005C75C482324C0
:1028DC000400B307F0401CCC1C480145A5F7831736
:1028EC00C40013F7070839DF93E707042316F40035
:1028FC0089BF898B014791E3584818C4F1BF83D72E
:10290C00C500011122CC26CA06CE4AC84EC613F702
:10291C008700AA842E8471EFD841634DE000B84142
:10292C00634AE0000145F2406244D2444249B24954
:10293C000561828058547DD703A904009396370112
:10294C0023A0040063DD060670488357C400918BF6
:10295C0099C75C401D8E5C5899C33C401D8E5C54DD
:10296C000C50814626858297FD570357C400631D82
:10297C00F5009440F54763E8D706B7074020850774
:10298C00B3D7D700858BA5C31C48232204001CC0D9
:10299C009317370163D80700FD576314F5009C406B
:1029AC0091E368C84C5823A02401ADDD930744047F
:1029BC006384F50026850129232A0402A5B70C504F
:1029CC000146854626850297FD572A86E31FF5F6B4
:1029DC009C40A5DF75476385E70059476394E7047E
:1029EC0023A0240181B7136707042316E4007D5547
:1029FC001DBF83A90501E38709F203A905008D8B8F
:102A0C0023A0350133093941014791E3D84918C452
:102A1C00E35A20F11C540C50CA864E8626858297A8
:102A2C006349A0008357C40093E707042316F400FE
:102A3C007DBFAA993309A940E1BF9C49B9CF0111C7
:102A4C0022CC06CE2A8411C51C4D81E72EC6292224
:102A5C00B245971700009387A705639BF5004C4080
:102A6C008397C50095C722856244F240056141BD3C
:102A7C00971700009387C7056394F5000C44CDB7F6
:102A8C00971700009387C700E39CF5FC4C44C9BF23
:102A9C00F24062440145056182800145828041110A
:102AAC0022C406C62A842316B5002317C50023208A
:102ABC0005002322050023240500232205062328D4
:102ACC000500232A0500232C05002146814513050A
:102ADC00C505EFE05FAC971700009387E7B45CD0B7
:102AEC0097170000938747B71CD49717000093875C
:102AFC0087BB5CD497170000938747BE00D01CD8C7
:102B0C00B24022444101828097050000938525F351
:102B1C0089AA411126C2130680069384F5FFB3845B
:102B2C00C4024AC02E8922C406C693854407812656
:102B3C002A8401CD2320050023222501310508C458
:102B4C00138684068145EFE01FA52285B2402244FE
:102B5C0092440249410182801C4DBDE3411106C6DD
:102B6C0022C497070000938767FA1CD597170000BB
:102B7C00938707FC9C432324050423260504232860
:102B8C0005046314F50085471CCD2A841D2848C014
:102B9C002285052808C422852D2048C448400146BA
:102BAC009145F53D08440546A545D53D48440946A3
:102BBC00C945F53585471CCCB24022444101828081
:102BCC008280411197170000938787F626C28443B1
:102BDC004AC006C69C4C22C42A8999E32685AD3F7F
:102BEC00938484048044DC40FD1763D607009C402A
:102BFC00B9CF8440C5BF0317C40039E7C177850737
:102C0C00232204062320040023220400232404008E
:102C1C005CC423280400232A0400232C040021462E
:102C2C0081451305C405EFE01F97232A0402232CCA
:102C3C00040223240404232604042285B2402244E3
:102C4C0092440249410182801304840671BF91456C
:102C5C004A85C13588C051FDB1472320F900014494
:102C6C00E9BF797122D44AD052CC56CA5AC85EC632
:102C7C0006D626D24ECE2A8AAE8A13048504014982
:102C8C00054BFD5B09ECB25022544A859254025913
:102C9C00F249624AD24A424BB24B456182800444AB
:102CAC0083294400FD1963D409000040E1BF83D798
:102CBC00C400637BFB008397E40063877701A685E0
:102CCC005285829A3369A90093848406E1BF1971F5
:102CDC00A6DAAE848395E500A2DC86DE328463DC62
:102CEC00050083D7C40023A0060093F7070885E7E7
:102CFC00930700401DA0300836C6EF00B023B24643
:102D0C00E34105FE7247BD67F98F7977BA9793B7A0
:102D1C0017009CC2F1BF930700041CC0F650665408
:102D2C00D65401450961828083D7C500011122CC9C
:102D3C0006CE26CA4AC8898B2E8489CF9307740481
:102D4C001CC01CC885475CC8F2406244D24442494E
:102D5C000561828074003000AA84953FA2452A89BF
:102D6C002685312201ED8317C40013F7072069FF74
:102D7C00F19B93E727002316F400C9B797070000CF
:102D8C009387C7D89CD48357C40008C008C893E75E
:102D9C0007082316F400A2475CC8B24791CF8315ED
:102DAC00E4002685EF00B01B01C98357C400F19BDA
:102DBC0093E717002316F4008357C4003369F90016
:102DCC002316240151B7DDC183A7C5FF411122C4CD
:102DDC0006C626C21384C5FF63D307003E94AA849B
:102DEC00EF00D01E9387C1829C4381EF2322040005
:102DFC0023A681822244B2402685924441016F0071
:102E0C00101D637EF40014403307D4006396E70072
:102E1C009843DC43369718C05CC0D9BFBA87D843F7
:102E2C0019C3E37DE4FE94433386D700631F860009
:102E3C001040B29694C33386D700E31DC7FA1043F3
:102E4C005843B29694C3D8C375B76375C400B147E1
:102E5C009CC04DB71040B306C4006316D700144392
:102E6C005843B29614C058C0C0C369B782800111D0
:102E7C0026CA93843500F19806CE22CC4AC84EC699
:102E8C00A104B14763F3F404B14463E2B4042A89A6
:102E9C00EF00D0139387C18298433A8439E093872B
:102EAC0001839C4391E781454A85812F23A8A18208
:102EBC00A6854A859927FD5963193507B147232003
:102ECC00F9004A85EF00B01029A0E3D004FCB1470B
:102EDC001CC10145F2406244D2444249B2490561E9
:102EEC0082801C40858F63CF0702AD4663F6F600E7
:102EFC001CC03E9404C031A05C406313870223A61F
:102F0C00F1824A85EF00B00C1305B400930744001E
:102F1C0061993307F5405DDF3A94898F1CC05DBF22
:102F2C005CC3C5B72287404095BF13043500719828
:102F3C00E30285FCB305A4404A85C125E31C35FB9F
:102F4C00B5BF1C46FD171CC663DA0700184E63C5D7
:102F5C00E700A9476394F5006FF06FFD1C422E85C6
:102F6C001387170018C22380B7008280011122CC6E
:102F7C0026CA4AC84EC652C406CE2A89AE893284A5
:102F8C00B304D6007D5A63149400014509A8834507
:102F9C0004004E864A8575370504E31645FFF2405A
:102FAC006244D2444249B249224A05618280357159
:102FBC0022CD26CB4AC94EC706CF52C556C35AC1DD
:102FCC00DEDEE2DCE6DAAA89AE843289368401C51B
:102FDC001C4D91E3513697170000938767AD639BA7
:102FEC00F40C83A4490083D7C400A18BF5C79C487B
:102FFC00E5C793070002A304F1029307000302D272
:10300C002305F10222C6930B5002971A0000938AF3
:10301C002AAE054C294B4A848347040099C363901C
:10302C00770FB30C2441638D0C00E6864A86A68587
:10303C004E852D3FFD576306F51E9256E69636D209
:10304C0083470400638F071CFD571309140002C843
:10305C0002CE3ECA02CCA309010482D483450900E6
:10306C0015465685B92713041900C24759E913F7B9
:10307C00070109C713070002A309E10413F787002E
:10308C0009C71307B002A309E1048346090013071B
:10309C00A0026380E608F2474A848146254603472E
:1030AC00040093051400130707FD6379E60AB5CAFB
:1030BC003ECE85A897170000938787A16395F400EF
:1030CC0083A489000DB7971700009387679CE39C36
:1030DC00F4F083A4C90001BFA6854E85EFF02FF153
:1030EC0009D97D55FA406A44DA444A49BA492A4A10
:1030FC009A4A0A4BF65B665CD65C0D6182800504CD
:10310C0021BF330555413315AC00C98F3EC8228908
:10311C00B1B7324793064700184336C663490702D6
:10312C003ACE034704009307E002631FF7040347FA
:10313C0014009307A002631BF702B247090413871C
:10314C0047009C433AC663C107023ECA35A8330701
:10315C00E04093E727003ACE3EC8E1B7B387670358
:10316C0085462E84BA9725BFFD57C5B7050402CAFC
:10317C008146814725460347040093051400130735
:10318C0007FD6376E606F1F2834504000D4617153C
:10319C00000013056596312D11CD9717000093870C
:1031AC00A7951D8D93070004B397A700424505040E
:1031BC005D8D2AC8834504001946171500001305B8
:1031CC00E593130914002304B102E5233DC197D7FD
:1031DC00FFFF938767E295E74247B24713770710E3
:1031EC0009CF91073EC69257D2973ED22DB5B387E1
:1031FC00670385462E84BA97BDBF9D07E19BA10747
:10320C00D5B7780097060000938686D626860C08DC
:10321C004E8597000000E7000000FD572A8AE31452
:10322C00F5FC83D7C40093F70704E39C07EA125517
:10323C0055BD780097060000938686D326860C0829
:10324C004E85012AD9BF797156CA9C49BA8A9845CC
:10325C0022D426D24ECE52CC06D64AD05AC85EC6FE
:10326C00AA892E84B284368A63D3E700BA879CC0BD
:10327C000347340419C385079CC01C4093F707020D
:10328C0081C79C4089079CC00329040013796900FD
:10329C00631A0900130B9401FD5B5C449840998FF1
:1032AC00634CF9041C408346340493F70702B3368D
:1032BC00D000A5EB13063404D2854E85829AFD57B7
:1032CC006303F5041C4011469840998B5444814487
:1032DC006397C700B384E64063D3040081441C4465
:1032EC0018486354F700998FBE94014969047D5BBB
:1032FC0063982405014509A885465A86D2854E85D2
:10330C00829A631E75017D55B25022549254025913
:10331C00F249624AD24A424BB24B4561828005095E
:10332C00ADBF3307D40013060003A301C704034742
:10333C00540493871600A2978906A381E7049DBFC6
:10334C0085462286D2854E85829AE30E65FB050959
:10335C0045B7797122D426D24AD04ECE06D652CC5D
:10336C0056CA5AC8B68983C6850193079006328916
:10337C00AA842E8413863504638DF60263E2D70685
:10338C00930780056387F61863EDD70063800622E8
:10339C0093073004638EF60A930A24042301D404A1
:1033AC00C9A0930730066385F60A93074006E39598
:1033BC00F6FE1C40084393F6070893054500C5C666
:1033CC001C410CC363D807001307D002B307F040AD
:1033DC00A301E404970600009386C67229476DA8E2
:1033EC00930700076383F61663E5D7029307E0069D
:1033FC00638AF6189307F006E390F6FA0C401C4328
:10340C0013F80508138547006307080608C39C4397
:10341C008DA893075007E383F6FE93078007638A12
:10342C00F61293073007E399F6F61C43D041814519
:10343C009386470014C383AA070056859D2E01C5A9
:10344C003305554148C05C401CC8A301040471A855
:10345C001C43930A2404938647009C4314C3230102
:10346C00F4048547D5B793F607041C410CC3B9DAAD
:10347C00C207C18781BF93F5050408C3C9D983D797
:10348C0007001307F0066387E60E97060000938685
:10349C0066672947A30104044C400CC463C50500AE
:1034AC0008406D9908C099E3B28A91CDB28AB3F500
:1034BC00E702FD1AB69583C505002380BA00B3D583
:1034CC00E70263FFE70AA147631EF7001C40858BE8
:1034DC0091CB58401C4863C7E70093070003A38FA8
:1034EC00FAFEFD1A3306564110C84E87CA86700084
:1034FC00A2852685893B7D5A631E450B7D55B250AE
:10350C00225492540259F249624AD24A424B4561C2
:10351C008280A382D504970600009386A65E0C4099
:10352C00084313F805081C411105630D080208C374
:10353C0013F7150001C793E505020CC04147B9FB11
:10354C000C4093F5F5FD0CC0B1B79C4193E7070215
:10355C009CC193078007A302F4049706000093868E
:10356C00A65B75BF13F8050408C3E30308FCC20788
:10357C00C1837DBF970600009386C658214719BFAB
:10358C00AE8735B794411C43CC4913F80608138514
:10359C0047006306080008C39C438CC301A808C3FA
:1035AC0093F606049C43F5DA2390B7002328040015
:1035BC00B28A25BF14485686CA8526858299E30FA0
:1035CC0045F31C40898B8DE7B2474844E359F5F22B
:1035DC003E8535B785465686CA8526858299E30F82
:1035EC0065F1050A5C443247998FE345FAFEE9BF61
:1035FC00014A930A94017D5BF5B7411122C42A84D8
:10360C002E8523AC017406C6EFE0DFE8FD57631787
:10361C00F500938781759C4391C31CC0B240224432
:10362C0041018280411122C42E848395E50006C697
:10363C004522634905007C48AA977CC8B2402244C5
:10364C00410182808357C4007D777D17F98F231643
:10365C00F400EDB783D7C500011122CC26CA4AC8A5
:10366C004EC606CE93F70710AA842E843289B689EB
:10367C0091C78395E5008946014631228357C400E2
:10368C007D777D17F98F2316F4008315E4006244CF
:10369C00F240CE864A86B24942492685D24405611B
:1036AC003DA8411122C42E848395E50006C6E1286D
:1036BC00FD570357C400631BF500FD77FD17F98F09
:1036CC002316F400B2402244410182808567D98FD1
:1036DC002316F40068C8FDB78395E50005A84111D1
:1036EC0022C42A842E85B285368623AC017406C684
:1036FC00EFE0DFD7FD576317F500938781759C4387
:10370C0091C31CC0B240224441018280411122C4A9
:10371C002A842E8523AC017406C6CD20FD57631771
:10372C00F500938781759C4391C31CC0B240224421
:10373C0041018280411122C42A842E85B28523AC9A
:10374C00017406C6D120FD576317F5009387817568
:10375C009C4391C31CC0B240224441018280411160
:10376C0022C42A842E8523AC017406C66520FD571D
:10377C006317F500938781759C4391C31CC0B240BD
:10378C00224441018280411122C42A842E85B285B3
:10379C00368623AC017406C66120FD576317F5000D
:1037AC00938781759C4391C31CC0B2402244410154
:1037BC00828093F5F50F2A966314C500014582802B
:1037CC0083470500E38DB7FE0505FDB78280828037
:1037DC00411122C42A842E85B285368623AC01740D
:1037EC0006C6A920FD576317F500938781759C4386
:1037FC0091C31CC0B24022444101828093078005D2
:10380C0023ACF1747D5582809307800523ACF17451
:10381C007D5582809307800523ACF174014582802D
:10382C009307800523ACF1747D5582809307800546
:10383C0023ACF1747D5582806ECEFF1FD6CDFF1F59
:10384C00D2CCFF1FD2CCFF1FD2CCFF1F76CDFF1FD7
:10385C005ECCFF1FD2CCFF1F80CDFF1F96CDFF1F6C
:10386C0068CEFF1F0A53746172740000434D443AD2
:10387C00204F757420627566666572206F7665726E
:10388C00666C6F77210D00004649464F2066756CBB
:10389C006C21202564203C2025640A0009024B0081
:1038AC000201008030080B00020202010009040032
:1038BC000001020201000524001001052401000191
:1038CC000424020205240600010705840308000AEB
:1038DC0009040100020A0000000705010240000073
:1038EC0007058102400000001201000202000040A6
:1038FC00861A408000300102030100000E0377009D
:10390C00630068002E0063006E0000000C0343008F
:10391C0048003500380078003031323334353637D2
:10392C00383961626364656600000000204E812EA8
:10393C000A1AF30D3B07B603E201F2003200540001
:10394C00960018011C021C041A081810000001CC67
:10395C0001D8001401F0003C002801E401A0006C27
:10396C00007801B40050019C018800444932433A6C
:10397C00205365742064656661756C7420434647FA
:10398C00000000004932433A204572726F72207772
:10399C007269746520616464723A20253032783A19
:1039AC00253032782C20646174613A2025303478CB
:1039BC00210D0A004932433A204572726F7220740D
:1039CC00696D696E67202D20737465702072656156
:1039DC00643A2025692075732C2069326320636C4E
:1039EC006B3A202569206B487A210D0A00000000F3
:1039FC004932433A20536574207265616420493220
:103A0C00432061646472210D000000004932433A86
:103A1C00204572726F722077726974652043464735
:103A2C000000000000001C042003800000C0800087
:103A3C000000800B00408001000080058004000025
:103A4C000000800100000000000000004932433AF1
:103A5C0020627566666572206F766572666C6F772C
:103A6C00210D000092E8FFFFBAE8FFFFE2E8FFFF3C
:103A7C00FAE8FFFF14E9FFFF24E9FFFF4CE9FFFF21
:103A8C0074E9FFFF8CE9FFFFA6E9FFFF00000000CF
:103A9C00000000000000000000000000000000001A
:103AAC00000000000000000000000000000000000A
:103ABC0000000000000000000000000000000000FA
:103ACC0000000000000000000000000000000000EA
:103ADC0000000000000000000000000000000000DA
:103AEC00000000000000000000000000232D302B1F
:103AFC0020000000686C4C00656667454647000076
:103B0C003031323334353637383941424344454607
:103B1C0000000000303132333435363738396162C9
:103B2C00636465660000000004030904D8140020D7
:103B3C000E03310032003300340035003600000033
:103B4C0000000000B83A0000D83A0000983A000093
:103B5C000000000000000000000000000000000059
:103B6C000000000000000000000000000000000049
:103B7C000000000000000000000000000000000039
:103B8C000000000000000000000000000000000029
:103B9C000000000000000000000000000000000019
:083BAC0094240020D81400202D
:00000001FF
